{
  "_format": "hh-sol-artifact-1",
  "contractName": "TrickOrTreat",
  "sourceName": "contracts/TrickOrTreat.sol",
  "abi": [
    {
      "anonymous": false,
      "inputs": [
        {
          "indexed": true,
          "internalType": "address",
          "name": "previousOwner",
          "type": "address"
        },
        {
          "indexed": true,
          "internalType": "address",
          "name": "newOwner",
          "type": "address"
        }
      ],
      "name": "OwnershipTransferred",
      "type": "event"
    },
    {
      "anonymous": false,
      "inputs": [
        {
          "indexed": true,
          "internalType": "address",
          "name": "visitorContractAddress",
          "type": "address"
        },
        {
          "indexed": true,
          "internalType": "uint256",
          "name": "visitorTokenId",
          "type": "uint256"
        },
        {
          "indexed": false,
          "internalType": "uint16",
          "name": "amount",
          "type": "uint16"
        }
      ],
      "name": "Treated",
      "type": "event"
    },
    {
      "anonymous": false,
      "inputs": [
        {
          "indexed": true,
          "internalType": "address",
          "name": "visitorContractAddress",
          "type": "address"
        },
        {
          "indexed": true,
          "internalType": "uint256",
          "name": "visitorTokenId",
          "type": "uint256"
        },
        {
          "indexed": false,
          "internalType": "uint16",
          "name": "amount",
          "type": "uint16"
        }
      ],
      "name": "Tricked",
      "type": "event"
    },
    {
      "inputs": [
        {
          "components": [
            {
              "internalType": "address",
              "name": "contractAddress",
              "type": "address"
            },
            {
              "internalType": "uint256",
              "name": "tokenId",
              "type": "uint256"
            }
          ],
          "internalType": "struct TrickOrTreat.NFT",
          "name": "visitor",
          "type": "tuple"
        }
      ],
      "name": "bagContents",
      "outputs": [
        {
          "internalType": "uint16",
          "name": "",
          "type": "uint16"
        }
      ],
      "stateMutability": "view",
      "type": "function"
    },
    {
      "inputs": [
        {
          "internalType": "uint256",
          "name": "",
          "type": "uint256"
        }
      ],
      "name": "dailyVisits",
      "outputs": [
        {
          "internalType": "uint8",
          "name": "",
          "type": "uint8"
        }
      ],
      "stateMutability": "view",
      "type": "function"
    },
    {
      "inputs": [],
      "name": "initialize",
      "outputs": [],
      "stateMutability": "nonpayable",
      "type": "function"
    },
    {
      "inputs": [],
      "name": "owner",
      "outputs": [
        {
          "internalType": "address",
          "name": "",
          "type": "address"
        }
      ],
      "stateMutability": "view",
      "type": "function"
    },
    {
      "inputs": [
        {
          "internalType": "uint256",
          "name": "",
          "type": "uint256"
        }
      ],
      "name": "placeVisits",
      "outputs": [
        {
          "internalType": "uint256",
          "name": "",
          "type": "uint256"
        }
      ],
      "stateMutability": "view",
      "type": "function"
    },
    {
      "inputs": [],
      "name": "renounceOwnership",
      "outputs": [],
      "stateMutability": "nonpayable",
      "type": "function"
    },
    {
      "inputs": [
        {
          "components": [
            {
              "internalType": "address",
              "name": "contractAddress",
              "type": "address"
            },
            {
              "internalType": "uint256",
              "name": "tokenId",
              "type": "uint256"
            }
          ],
          "internalType": "struct TrickOrTreat.NFT",
          "name": "visitor",
          "type": "tuple"
        },
        {
          "components": [
            {
              "internalType": "address",
              "name": "contractAddress",
              "type": "address"
            },
            {
              "internalType": "uint256",
              "name": "tokenId",
              "type": "uint256"
            }
          ],
          "internalType": "struct TrickOrTreat.NFT",
          "name": "place",
          "type": "tuple"
        }
      ],
      "name": "ringDoorbell",
      "outputs": [],
      "stateMutability": "nonpayable",
      "type": "function"
    },
    {
      "inputs": [
        {
          "internalType": "address",
          "name": "newOwner",
          "type": "address"
        }
      ],
      "name": "transferOwnership",
      "outputs": [],
      "stateMutability": "nonpayable",
      "type": "function"
    },
    {
      "inputs": [
        {
          "internalType": "uint256",
          "name": "",
          "type": "uint256"
        }
      ],
      "name": "treats",
      "outputs": [
        {
          "internalType": "uint16",
          "name": "",
          "type": "uint16"
        }
      ],
      "stateMutability": "view",
      "type": "function"
    }
  ],
  "bytecode": "0x608060405234801561001057600080fd5b506117bd806100206000396000f3fe608060405234801561001057600080fd5b50600436106100925760003560e01c80638129fc1c116100665780638129fc1c146101315780638da5cb5b1461013b578063b1d8a34014610159578063be4d04ca14610189578063f2fde38b146101a557610092565b806210b585146100975780635c34e7b0146100c7578063715018a6146100f757806379e16d0c14610101575b600080fd5b6100b160048036038101906100ac9190610ee4565b6101c1565b6040516100be91906112a8565b60405180910390f35b6100e160048036038101906100dc9190610f49565b6101f9565b6040516100ee91906112de565b60405180910390f35b6100ff610219565b005b61011b60048036038101906101169190610f49565b6102a1565b60405161012891906112a8565b60405180910390f35b6101396102c2565b005b6101436103a3565b6040516101509190611108565b60405180910390f35b610173600480360381019061016e9190610f49565b6103cd565b60405161018091906112c3565b60405180910390f35b6101a3600480360381019061019e9190610f0d565b6103e5565b005b6101bf60048036038101906101ba9190610ebb565b610960565b005b6000806101cd83610a58565b90506067600082815260200190815260200160002060009054906101000a900461ffff16915050919050565b60666020528060005260406000206000915054906101000a900460ff1681565b610221610a95565b73ffffffffffffffffffffffffffffffffffffffff1661023f6103a3565b73ffffffffffffffffffffffffffffffffffffffff1614610295576040517f08c379a000000000000000000000000000000000000000000000000000000000815260040161028c90611268565b60405180910390fd5b61029f6000610a9d565b565b60676020528060005260406000206000915054906101000a900461ffff1681565b600060019054906101000a900460ff16806102e8575060008054906101000a900460ff16155b610327576040517f08c379a000000000000000000000000000000000000000000000000000000000815260040161031e90611248565b60405180910390fd5b60008060019054906101000a900460ff161590508015610377576001600060016101000a81548160ff02191690831515021790555060016000806101000a81548160ff0219169083151502179055505b61037f610b63565b80156103a05760008060016101000a81548160ff0219169083151502179055505b50565b6000603360009054906101000a900473ffffffffffffffffffffffffffffffffffffffff16905090565b60656020528060005260406000206000915090505481565b6103ed610a95565b73ffffffffffffffffffffffffffffffffffffffff1661040b6103a3565b73ffffffffffffffffffffffffffffffffffffffff1614610461576040517f08c379a000000000000000000000000000000000000000000000000000000000815260040161045890611268565b60405180910390fd5b600061046c83610a58565b90506101f46067600083815260200190815260200160002060009054906101000a900461ffff1661ffff16106104d7576040517f08c379a00000000000000000000000000000000000000000000000000000000081526004016104ce906111c8565b60405180910390fd5b60008360000151846020015162015180426104f291906113f4565b60405160200161050493929190611191565b6040516020818303038152906040528051906020012060001c9050600c6066600083815260200190815260200160002060009054906101000a900460ff1660ff1610610585576040517f08c379a000000000000000000000000000000000000000000000000000000000815260040161057c90611228565b60405180910390fd5b600084600001518560200151856000015186602001516040516020016105ae949392919061114c565b6040516020818303038152906040528051906020012060001c905061e1006065600083815260200190815260200160002054426105eb9190611459565b1161062b576040517f08c379a000000000000000000000000000000000000000000000000000000000815260040161062290611208565b60405180910390fd5b60016066600084815260200190815260200160002060008282829054906101000a900460ff1661065b91906113bd565b92506101000a81548160ff021916908360ff16021790555042606560008381526020019081526020016000208190555060008460000151856020015162015180426106a691906113f4565b6040516020016106b893929190611191565b6040516020818303038152906040528051906020012060001c905060006008826106e2919061151f565b1415610723576040517f08c379a000000000000000000000000000000000000000000000000000000000815260040161071a90611288565b60405180910390fd5b600060016005610731610c4c565b61073b919061151f565b6107459190611367565b905060006006610753610c4c565b61075d919061151f565b14801561078f575060006067600087815260200190815260200160002060009054906101000a900461ffff1661ffff16115b156108a5576067600086815260200190815260200160002060009054906101000a900461ffff1661ffff168161ffff16116107ca57806107ed565b6067600086815260200190815260200160002060009054906101000a900461ffff165b9050806067600087815260200190815260200160002060009054906101000a900461ffff1661081c9190611425565b6067600087815260200190815260200160002060006101000a81548161ffff021916908361ffff1602179055508660200151876000015173ffffffffffffffffffffffffffffffffffffffff167f23b9b2d476d90a64ac2a5a600191d156df7c67f5bbbb4ca2a0896359a1ab0b308360405161089891906112a8565b60405180910390a3610957565b806067600087815260200190815260200160002060009054906101000a900461ffff166108d2919061132f565b6067600087815260200190815260200160002060006101000a81548161ffff021916908361ffff1602179055508660200151876000015173ffffffffffffffffffffffffffffffffffffffff167fcc049c6e74d28eb24241b9d85bef4d22e1fddec17be61d05c8d5ce29afa3e9388360405161094e91906112a8565b60405180910390a35b50505050505050565b610968610a95565b73ffffffffffffffffffffffffffffffffffffffff166109866103a3565b73ffffffffffffffffffffffffffffffffffffffff16146109dc576040517f08c379a00000000000000000000000000000000000000000000000000000000081526004016109d390611268565b60405180910390fd5b600073ffffffffffffffffffffffffffffffffffffffff168173ffffffffffffffffffffffffffffffffffffffff161415610a4c576040517f08c379a0000000000000000000000000000000000000000000000000000000008152600401610a43906111e8565b60405180910390fd5b610a5581610a9d565b50565b600081600001518260200151604051602001610a75929190611123565b6040516020818303038152906040528051906020012060001c9050919050565b600033905090565b6000603360009054906101000a900473ffffffffffffffffffffffffffffffffffffffff16905081603360006101000a81548173ffffffffffffffffffffffffffffffffffffffff021916908373ffffffffffffffffffffffffffffffffffffffff1602179055508173ffffffffffffffffffffffffffffffffffffffff168173ffffffffffffffffffffffffffffffffffffffff167f8be0079c531659141344cd1fd0a4f28419497f9722a3daafe3b4186f6b6457e060405160405180910390a35050565b600060019054906101000a900460ff1680610b89575060008054906101000a900460ff16155b610bc8576040517f08c379a0000000000000000000000000000000000000000000000000000000008152600401610bbf90611248565b60405180910390fd5b60008060019054906101000a900460ff161590508015610c18576001600060016101000a81548160ff02191690831515021790555060016000806101000a81548160ff0219169083151502179055505b610c20610c83565b610c28610d5c565b8015610c495760008060016101000a81548160ff0219169083151502179055505b50565b60004342445a604051602001610c6594939291906110ba565b6040516020818303038152906040528051906020012060001c905090565b600060019054906101000a900460ff1680610ca9575060008054906101000a900460ff16155b610ce8576040517f08c379a0000000000000000000000000000000000000000000000000000000008152600401610cdf90611248565b60405180910390fd5b60008060019054906101000a900460ff161590508015610d38576001600060016101000a81548160ff02191690831515021790555060016000806101000a81548160ff0219169083151502179055505b8015610d595760008060016101000a81548160ff0219169083151502179055505b50565b600060019054906101000a900460ff1680610d82575060008054906101000a900460ff16155b610dc1576040517f08c379a0000000000000000000000000000000000000000000000000000000008152600401610db890611248565b60405180910390fd5b60008060019054906101000a900460ff161590508015610e11576001600060016101000a81548160ff02191690831515021790555060016000806101000a81548160ff0219169083151502179055505b610e21610e1c610a95565b610a9d565b8015610e425760008060016101000a81548160ff0219169083151502179055505b50565b600081359050610e5481611759565b92915050565b600060408284031215610e6c57600080fd5b610e7660406112f9565b90506000610e8684828501610e45565b6000830152506020610e9a84828501610ea6565b60208301525092915050565b600081359050610eb581611770565b92915050565b600060208284031215610ecd57600080fd5b6000610edb84828501610e45565b91505092915050565b600060408284031215610ef657600080fd5b6000610f0484828501610e5a565b91505092915050565b60008060808385031215610f2057600080fd5b6000610f2e85828601610e5a565b9250506040610f3f85828601610e5a565b9150509250929050565b600060208284031215610f5b57600080fd5b6000610f6984828501610ea6565b91505092915050565b610f7b8161148d565b82525050565b6000610f8e60118361131e565b9150610f99826115ee565b602082019050919050565b6000610fb160268361131e565b9150610fbc82611617565b604082019050919050565b6000610fd4601e8361131e565b9150610fdf82611666565b602082019050919050565b6000610ff760128361131e565b91506110028261168f565b602082019050919050565b600061101a602e8361131e565b9150611025826116b8565b604082019050919050565b600061103d60208361131e565b915061104882611707565b602082019050919050565b600061106060128361131e565b915061106b82611730565b602082019050919050565b61107f8161149f565b82525050565b61108e816114cd565b82525050565b6110a56110a0826114cd565b611515565b82525050565b6110b4816114d7565b82525050565b60006110c68287611094565b6020820191506110d68286611094565b6020820191506110e68285611094565b6020820191506110f68284611094565b60208201915081905095945050505050565b600060208201905061111d6000830184610f72565b92915050565b60006040820190506111386000830185610f72565b6111456020830184611085565b9392505050565b60006080820190506111616000830187610f72565b61116e6020830186611085565b61117b6040830185610f72565b6111886060830184611085565b95945050505050565b60006060820190506111a66000830186610f72565b6111b36020830185611085565b6111c06040830184611085565b949350505050565b600060208201905081810360008301526111e181610f81565b9050919050565b6000602082019050818103600083015261120181610fa4565b9050919050565b6000602082019050818103600083015261122181610fc7565b9050919050565b6000602082019050818103600083015261124181610fea565b9050919050565b600060208201905081810360008301526112618161100d565b9050919050565b6000602082019050818103600083015261128181611030565b9050919050565b600060208201905081810360008301526112a181611053565b9050919050565b60006020820190506112bd6000830184611076565b92915050565b60006020820190506112d86000830184611085565b92915050565b60006020820190506112f360008301846110ab565b92915050565b6000611303611314565b905061130f82826114e4565b919050565b6000604051905090565b600082825260208201905092915050565b600061133a8261149f565b91506113458361149f565b92508261ffff0382111561135c5761135b611550565b5b828201905092915050565b6000611372826114cd565b915061137d836114cd565b9250827fffffffffffffffffffffffffffffffffffffffffffffffffffffffffffffffff038211156113b2576113b1611550565b5b828201905092915050565b60006113c8826114d7565b91506113d3836114d7565b92508260ff038211156113e9576113e8611550565b5b828201905092915050565b60006113ff826114cd565b915061140a836114cd565b92508261141a5761141961157f565b5b828204905092915050565b60006114308261149f565b915061143b8361149f565b92508282101561144e5761144d611550565b5b828203905092915050565b6000611464826114cd565b915061146f836114cd565b92508282101561148257611481611550565b5b828203905092915050565b6000611498826114ad565b9050919050565b600061ffff82169050919050565b600073ffffffffffffffffffffffffffffffffffffffff82169050919050565b6000819050919050565b600060ff82169050919050565b6114ed826115dd565b810181811067ffffffffffffffff8211171561150c5761150b6115ae565b5b80604052505050565b6000819050919050565b600061152a826114cd565b9150611535836114cd565b9250826115455761154461157f565b5b828206905092915050565b7f4e487b7100000000000000000000000000000000000000000000000000000000600052601160045260246000fd5b7f4e487b7100000000000000000000000000000000000000000000000000000000600052601260045260246000fd5b7f4e487b7100000000000000000000000000000000000000000000000000000000600052604160045260246000fd5b6000601f19601f8301169050919050565b7f50554d504b494e5f5f4241475f46554c4c000000000000000000000000000000600082015250565b7f4f776e61626c653a206e6577206f776e657220697320746865207a65726f206160008201527f6464726573730000000000000000000000000000000000000000000000000000602082015250565b7f50554d504b494e5f5f414c52454144595f564953495445445f544f4441590000600082015250565b7f50554d504b494e5f5f544f4f5f54495245440000000000000000000000000000600082015250565b7f496e697469616c697a61626c653a20636f6e747261637420697320616c72656160008201527f647920696e697469616c697a6564000000000000000000000000000000000000602082015250565b7f4f776e61626c653a2063616c6c6572206973206e6f7420746865206f776e6572600082015250565b7f50554d504b494e5f5f4e4f5f414e535745520000000000000000000000000000600082015250565b6117628161148d565b811461176d57600080fd5b50565b611779816114cd565b811461178457600080fd5b5056fea2646970667358221220a028aee08c3d870d498fe968556aa63e148d729802831750f1c705c0b070f7c764736f6c63430008040033",
  "linkReferences": {},
  "deployedLinkReferences": {}
}