{
  "_format": "hh-sol-artifact-1",
  "contractName": "TrickOrTreat",
  "sourceName": "contracts/TrickOrTreat.sol",
  "abi": [
    {
      "anonymous": false,
      "inputs": [
        {
          "indexed": true,
          "internalType": "bytes32",
          "name": "role",
          "type": "bytes32"
        },
        {
          "indexed": true,
          "internalType": "bytes32",
          "name": "previousAdminRole",
          "type": "bytes32"
        },
        {
          "indexed": true,
          "internalType": "bytes32",
          "name": "newAdminRole",
          "type": "bytes32"
        }
      ],
      "name": "RoleAdminChanged",
      "type": "event"
    },
    {
      "anonymous": false,
      "inputs": [
        {
          "indexed": true,
          "internalType": "bytes32",
          "name": "role",
          "type": "bytes32"
        },
        {
          "indexed": true,
          "internalType": "address",
          "name": "account",
          "type": "address"
        },
        {
          "indexed": true,
          "internalType": "address",
          "name": "sender",
          "type": "address"
        }
      ],
      "name": "RoleGranted",
      "type": "event"
    },
    {
      "anonymous": false,
      "inputs": [
        {
          "indexed": true,
          "internalType": "bytes32",
          "name": "role",
          "type": "bytes32"
        },
        {
          "indexed": true,
          "internalType": "address",
          "name": "account",
          "type": "address"
        },
        {
          "indexed": true,
          "internalType": "address",
          "name": "sender",
          "type": "address"
        }
      ],
      "name": "RoleRevoked",
      "type": "event"
    },
    {
      "anonymous": false,
      "inputs": [
        {
          "indexed": true,
          "internalType": "address",
          "name": "visitorContractAddress",
          "type": "address"
        },
        {
          "indexed": true,
          "internalType": "uint256",
          "name": "visitorTokenId",
          "type": "uint256"
        },
        {
          "indexed": false,
          "internalType": "uint16",
          "name": "amount",
          "type": "uint16"
        }
      ],
      "name": "Treated",
      "type": "event"
    },
    {
      "anonymous": false,
      "inputs": [
        {
          "indexed": true,
          "internalType": "address",
          "name": "visitorContractAddress",
          "type": "address"
        },
        {
          "indexed": true,
          "internalType": "uint256",
          "name": "visitorTokenId",
          "type": "uint256"
        },
        {
          "indexed": false,
          "internalType": "uint16",
          "name": "amount",
          "type": "uint16"
        }
      ],
      "name": "Tricked",
      "type": "event"
    },
    {
      "inputs": [],
      "name": "DEFAULT_ADMIN_ROLE",
      "outputs": [
        {
          "internalType": "bytes32",
          "name": "",
          "type": "bytes32"
        }
      ],
      "stateMutability": "view",
      "type": "function"
    },
    {
      "inputs": [],
      "name": "DOORMAN",
      "outputs": [
        {
          "internalType": "bytes32",
          "name": "",
          "type": "bytes32"
        }
      ],
      "stateMutability": "view",
      "type": "function"
    },
    {
      "inputs": [
        {
          "components": [
            {
              "internalType": "address",
              "name": "contractAddress",
              "type": "address"
            },
            {
              "internalType": "uint256",
              "name": "tokenId",
              "type": "uint256"
            }
          ],
          "internalType": "struct TrickOrTreat.NFT",
          "name": "visitor",
          "type": "tuple"
        }
      ],
      "name": "addVisitor",
      "outputs": [],
      "stateMutability": "nonpayable",
      "type": "function"
    },
    {
      "inputs": [
        {
          "components": [
            {
              "internalType": "address",
              "name": "contractAddress",
              "type": "address"
            },
            {
              "internalType": "uint256",
              "name": "tokenId",
              "type": "uint256"
            }
          ],
          "internalType": "struct TrickOrTreat.NFT[]",
          "name": "_visitors",
          "type": "tuple[]"
        }
      ],
      "name": "addVisitors",
      "outputs": [],
      "stateMutability": "nonpayable",
      "type": "function"
    },
    {
      "inputs": [
        {
          "components": [
            {
              "internalType": "address",
              "name": "contractAddress",
              "type": "address"
            },
            {
              "internalType": "uint256",
              "name": "tokenId",
              "type": "uint256"
            }
          ],
          "internalType": "struct TrickOrTreat.NFT",
          "name": "visitor",
          "type": "tuple"
        }
      ],
      "name": "bagContents",
      "outputs": [
        {
          "internalType": "uint16",
          "name": "",
          "type": "uint16"
        }
      ],
      "stateMutability": "view",
      "type": "function"
    },
    {
      "inputs": [
        {
          "components": [
            {
              "internalType": "address",
              "name": "contractAddress",
              "type": "address"
            },
            {
              "internalType": "uint256",
              "name": "tokenId",
              "type": "uint256"
            }
          ],
          "internalType": "struct TrickOrTreat.NFT",
          "name": "visitor",
          "type": "tuple"
        },
        {
          "components": [
            {
              "internalType": "address",
              "name": "contractAddress",
              "type": "address"
            },
            {
              "internalType": "uint256",
              "name": "tokenId",
              "type": "uint256"
            }
          ],
          "internalType": "struct TrickOrTreat.NFT",
          "name": "place",
          "type": "tuple"
        }
      ],
      "name": "canRingDoorbell",
      "outputs": [],
      "stateMutability": "view",
      "type": "function"
    },
    {
      "inputs": [
        {
          "internalType": "uint256",
          "name": "",
          "type": "uint256"
        }
      ],
      "name": "dailyVisits",
      "outputs": [
        {
          "internalType": "uint8",
          "name": "",
          "type": "uint8"
        }
      ],
      "stateMutability": "view",
      "type": "function"
    },
    {
      "inputs": [
        {
          "components": [
            {
              "internalType": "address",
              "name": "contractAddress",
              "type": "address"
            },
            {
              "internalType": "uint256",
              "name": "tokenId",
              "type": "uint256"
            }
          ],
          "internalType": "struct TrickOrTreat.NFT",
          "name": "visitor",
          "type": "tuple"
        },
        {
          "components": [
            {
              "internalType": "address",
              "name": "contractAddress",
              "type": "address"
            },
            {
              "internalType": "uint256",
              "name": "tokenId",
              "type": "uint256"
            }
          ],
          "internalType": "struct TrickOrTreat.NFT",
          "name": "place",
          "type": "tuple"
        }
      ],
      "name": "getPlaceVisitHash",
      "outputs": [
        {
          "internalType": "uint256",
          "name": "",
          "type": "uint256"
        }
      ],
      "stateMutability": "pure",
      "type": "function"
    },
    {
      "inputs": [
        {
          "internalType": "bytes32",
          "name": "role",
          "type": "bytes32"
        }
      ],
      "name": "getRoleAdmin",
      "outputs": [
        {
          "internalType": "bytes32",
          "name": "",
          "type": "bytes32"
        }
      ],
      "stateMutability": "view",
      "type": "function"
    },
    {
      "inputs": [
        {
          "components": [
            {
              "internalType": "address",
              "name": "contractAddress",
              "type": "address"
            },
            {
              "internalType": "uint256",
              "name": "tokenId",
              "type": "uint256"
            }
          ],
          "internalType": "struct TrickOrTreat.NFT",
          "name": "visitor",
          "type": "tuple"
        }
      ],
      "name": "getVisitorHash",
      "outputs": [
        {
          "internalType": "uint256",
          "name": "",
          "type": "uint256"
        }
      ],
      "stateMutability": "pure",
      "type": "function"
    },
    {
      "inputs": [
        {
          "components": [
            {
              "internalType": "address",
              "name": "contractAddress",
              "type": "address"
            },
            {
              "internalType": "uint256",
              "name": "tokenId",
              "type": "uint256"
            }
          ],
          "internalType": "struct TrickOrTreat.NFT",
          "name": "visitor",
          "type": "tuple"
        }
      ],
      "name": "getVisitorTodayHash",
      "outputs": [
        {
          "internalType": "uint256",
          "name": "",
          "type": "uint256"
        }
      ],
      "stateMutability": "view",
      "type": "function"
    },
    {
      "inputs": [
        {
          "internalType": "bytes32",
          "name": "role",
          "type": "bytes32"
        },
        {
          "internalType": "address",
          "name": "account",
          "type": "address"
        }
      ],
      "name": "grantRole",
      "outputs": [],
      "stateMutability": "nonpayable",
      "type": "function"
    },
    {
      "inputs": [
        {
          "internalType": "bytes32",
          "name": "role",
          "type": "bytes32"
        },
        {
          "internalType": "address",
          "name": "account",
          "type": "address"
        }
      ],
      "name": "hasRole",
      "outputs": [
        {
          "internalType": "bool",
          "name": "",
          "type": "bool"
        }
      ],
      "stateMutability": "view",
      "type": "function"
    },
    {
      "inputs": [
        {
          "components": [
            {
              "internalType": "address",
              "name": "contractAddress",
              "type": "address"
            },
            {
              "internalType": "uint256",
              "name": "tokenId",
              "type": "uint256"
            }
          ],
          "internalType": "struct TrickOrTreat.NFT",
          "name": "visitor",
          "type": "tuple"
        }
      ],
      "name": "hasVisitedBefore",
      "outputs": [
        {
          "internalType": "bool",
          "name": "",
          "type": "bool"
        }
      ],
      "stateMutability": "view",
      "type": "function"
    },
    {
      "inputs": [],
      "name": "initialize",
      "outputs": [],
      "stateMutability": "nonpayable",
      "type": "function"
    },
    {
      "inputs": [],
      "name": "listVisitors",
      "outputs": [
        {
          "internalType": "uint256[]",
          "name": "",
          "type": "uint256[]"
        }
      ],
      "stateMutability": "view",
      "type": "function"
    },
    {
      "inputs": [
        {
          "internalType": "uint256",
          "name": "",
          "type": "uint256"
        }
      ],
      "name": "placeVisits",
      "outputs": [
        {
          "internalType": "uint256",
          "name": "",
          "type": "uint256"
        }
      ],
      "stateMutability": "view",
      "type": "function"
    },
    {
      "inputs": [
        {
          "internalType": "bytes32",
          "name": "role",
          "type": "bytes32"
        },
        {
          "internalType": "address",
          "name": "account",
          "type": "address"
        }
      ],
      "name": "renounceRole",
      "outputs": [],
      "stateMutability": "nonpayable",
      "type": "function"
    },
    {
      "inputs": [
        {
          "internalType": "bytes32",
          "name": "role",
          "type": "bytes32"
        },
        {
          "internalType": "address",
          "name": "account",
          "type": "address"
        }
      ],
      "name": "revokeRole",
      "outputs": [],
      "stateMutability": "nonpayable",
      "type": "function"
    },
    {
      "inputs": [
        {
          "components": [
            {
              "internalType": "address",
              "name": "contractAddress",
              "type": "address"
            },
            {
              "internalType": "uint256",
              "name": "tokenId",
              "type": "uint256"
            }
          ],
          "internalType": "struct TrickOrTreat.NFT",
          "name": "visitor",
          "type": "tuple"
        },
        {
          "components": [
            {
              "internalType": "address",
              "name": "contractAddress",
              "type": "address"
            },
            {
              "internalType": "uint256",
              "name": "tokenId",
              "type": "uint256"
            }
          ],
          "internalType": "struct TrickOrTreat.NFT",
          "name": "place",
          "type": "tuple"
        }
      ],
      "name": "ringDoorbell",
      "outputs": [],
      "stateMutability": "nonpayable",
      "type": "function"
    },
    {
      "inputs": [
        {
          "internalType": "bytes4",
          "name": "interfaceId",
          "type": "bytes4"
        }
      ],
      "name": "supportsInterface",
      "outputs": [
        {
          "internalType": "bool",
          "name": "",
          "type": "bool"
        }
      ],
      "stateMutability": "view",
      "type": "function"
    },
    {
      "inputs": [
        {
          "internalType": "uint256",
          "name": "",
          "type": "uint256"
        }
      ],
      "name": "treats",
      "outputs": [
        {
          "internalType": "uint16",
          "name": "",
          "type": "uint16"
        }
      ],
      "stateMutability": "view",
      "type": "function"
    },
    {
      "inputs": [
        {
          "internalType": "uint256",
          "name": "",
          "type": "uint256"
        }
      ],
      "name": "visitorHashes",
      "outputs": [
        {
          "internalType": "address",
          "name": "contractAddress",
          "type": "address"
        },
        {
          "internalType": "uint256",
          "name": "tokenId",
          "type": "uint256"
        }
      ],
      "stateMutability": "view",
      "type": "function"
    }
  ],
  "bytecode": "0x608060405234801561001057600080fd5b506129ff806100206000396000f3fe608060405234801561001057600080fd5b506004361061014c5760003560e01c80636578210d116100c3578063b1d8a3401161007c578063b1d8a340146103e8578063be4d04ca14610418578063c171363414610434578063c600ee2c14610464578063d547741f14610480578063fed4b4ea1461049c5761014c565b80636578210d146102ff57806379e16d0c1461032f5780638129fc1c1461035f57806391d1485414610369578063957b0fd914610399578063a217fddf146103ca5761014c565b8063248a9ca311610115578063248a9ca31461022d578063280fd18d1461025d5780632f2ff15d1461027b578063311d3bd21461029757806336568abe146102b35780635c34e7b0146102cf5761014c565b806210b5851461015157806301ffc9a71461018157806309331359146101b15780630b86abcd146101e15780630e5b1a7914610211575b600080fd5b61016b60048036038101906101669190611cfd565b6104ba565b60405161017891906122ad565b60405180910390f35b61019b60048036038101906101969190611cd4565b6104f2565b6040516101a89190612175565b60405180910390f35b6101cb60048036038101906101c69190611cfd565b61056c565b6040516101d89190612175565b60405180910390f35b6101fb60048036038101906101f69190611cfd565b610596565b60405161020891906122c8565b60405180910390f35b61022b60048036038101906102269190611c2e565b6105d3565b005b61024760048036038101906102429190611c6f565b610672565b6040516102549190612190565b60405180910390f35b610265610692565b6040516102729190612153565b60405180910390f35b61029560048036038101906102909190611c98565b6106a3565b005b6102b160048036038101906102ac9190611d26565b6106cc565b005b6102cd60048036038101906102c89190611c98565b6108c5565b005b6102e960048036038101906102e49190611d62565b610948565b6040516102f691906122e3565b60405180910390f35b61031960048036038101906103149190611d26565b610968565b60405161032691906122c8565b60405180910390f35b61034960048036038101906103449190611d62565b6109b2565b60405161035691906122ad565b60405180910390f35b6103676109d3565b005b610383600480360381019061037e9190611c98565b610aeb565b6040516103909190612175565b60405180910390f35b6103b360048036038101906103ae9190611d62565b610b56565b6040516103c19291906120ae565b60405180910390f35b6103d2610b9a565b6040516103df9190612190565b60405180910390f35b61040260048036038101906103fd9190611d62565b610ba1565b60405161040f91906122c8565b60405180910390f35b610432600480360381019061042d9190611d26565b610bb9565b005b61044e60048036038101906104499190611cfd565b610ecc565b60405161045b91906122c8565b60405180910390f35b61047e60048036038101906104799190611cfd565b610f19565b005b61049a60048036038101906104959190611c98565b610fda565b005b6104a4611003565b6040516104b19190612190565b60405180910390f35b6000806104c683610596565b90506099600082815260200190815260200160002060009054906101000a900461ffff16915050919050565b60007f7965db0b000000000000000000000000000000000000000000000000000000007bffffffffffffffffffffffffffffffffffffffffffffffffffffffff1916827bffffffffffffffffffffffffffffffffffffffffffffffffffffffff19161480610565575061056482611027565b5b9050919050565b60008061057883610596565b905061058e81609a61109190919063ffffffff16565b915050919050565b6000816000015182602001516040516020016105b39291906120ae565b6040516020818303038152906040528051906020012060001c9050919050565b7f86963f192fc176491b7bfa89b708538409f462c751c0ec1af0c0d95c9ddb801d610605816106006110ab565b6110b3565b60005b825181101561066d5761065a83828151811061064d577f4e487b7100000000000000000000000000000000000000000000000000000000600052603260045260246000fd5b6020026020010151610f19565b80806106659061268e565b915050610608565b505050565b600060656000838152602001908152602001600020600101549050919050565b606061069e609a611150565b905090565b6106ac82610672565b6106bd816106b86110ab565b6110b3565b6106c78383611171565b505050565b60006106d783610596565b90506101f46099600083815260200190815260200160002060009054906101000a900461ffff1661ffff1610610742576040517f08c379a0000000000000000000000000000000000000000000000000000000008152600401610739906121ed565b60405180910390fd5b600061074d84610ecc565b9050600c6098600083815260200190815260200160002060009054906101000a900460ff1660ff16106107b5576040517f08c379a00000000000000000000000000000000000000000000000000000000081526004016107ac9061222d565b60405180910390fd5b60006107c18585610968565b905061e1006097600083815260200190815260200160002054426107e59190612533565b11610825576040517f08c379a000000000000000000000000000000000000000000000000000000000815260040161081c9061220d565b60405180910390fd5b60008460000151856020015162015180426108409190612474565b6040516020016108529392919061211c565b6040516020818303038152906040528051906020012060001c9050600060088261087c91906126e1565b14156108bd576040517f08c379a00000000000000000000000000000000000000000000000000000000081526004016108b49061226d565b60405180910390fd5b505050505050565b6108cd6110ab565b73ffffffffffffffffffffffffffffffffffffffff168173ffffffffffffffffffffffffffffffffffffffff161461093a576040517f08c379a00000000000000000000000000000000000000000000000000000000081526004016109319061228d565b60405180910390fd5b6109448282611252565b5050565b60986020528060005260406000206000915054906101000a900460ff1681565b6000826000015183602001518360000151846020015160405160200161099194939291906120d7565b6040516020818303038152906040528051906020012060001c905092915050565b60996020528060005260406000206000915054906101000a900461ffff1681565b600060019054906101000a900460ff16806109f9575060008054906101000a900460ff16155b610a38576040517f08c379a0000000000000000000000000000000000000000000000000000000008152600401610a2f9061224d565b60405180910390fd5b60008060019054906101000a900460ff161590508015610a88576001600060016101000a81548160ff02191690831515021790555060016000806101000a81548160ff0219169083151502179055505b610a90611334565b610a9d6000801b33611425565b610ac77f86963f192fc176491b7bfa89b708538409f462c751c0ec1af0c0d95c9ddb801d33611425565b8015610ae85760008060016101000a81548160ff0219169083151502179055505b50565b60006065600084815260200190815260200160002060000160008373ffffffffffffffffffffffffffffffffffffffff1673ffffffffffffffffffffffffffffffffffffffff16815260200190815260200160002060009054906101000a900460ff16905092915050565b609c6020528060005260406000206000915090508060000160009054906101000a900473ffffffffffffffffffffffffffffffffffffffff16908060010154905082565b6000801b81565b60976020528060005260406000206000915090505481565b7f86963f192fc176491b7bfa89b708538409f462c751c0ec1af0c0d95c9ddb801d610beb81610be66110ab565b6110b3565b610bf583836106cc565b6000610c0084610596565b90506000610c0d85610ecc565b90506000610c1b8686610968565b905060016098600084815260200190815260200160002060008282829054906101000a900460ff16610c4d919061243d565b92506101000a81548160ff021916908360ff160217905550426097600083815260200190815260200160002081905550600060016005610c8b611433565b610c9591906126e1565b610c9f91906123e7565b905060006006610cad611433565b610cb791906126e1565b148015610ce9575060006099600086815260200190815260200160002060009054906101000a900461ffff1661ffff16115b15610e08576099600085815260200190815260200160002060009054906101000a900461ffff1661ffff168161ffff1611610d245780610d47565b6099600085815260200190815260200160002060009054906101000a900461ffff165b9050806099600086815260200190815260200160002060009054906101000a900461ffff16610d7691906124ff565b6099600086815260200190815260200160002060006101000a81548161ffff021916908361ffff160217905550610dac87610f19565b8660200151876000015173ffffffffffffffffffffffffffffffffffffffff167f23b9b2d476d90a64ac2a5a600191d156df7c67f5bbbb4ca2a0896359a1ab0b3083604051610dfb91906122ad565b60405180910390a3610ec3565b806099600086815260200190815260200160002060009054906101000a900461ffff16610e3591906123af565b6099600086815260200190815260200160002060006101000a81548161ffff021916908361ffff160217905550610e6b87610f19565b8660200151876000015173ffffffffffffffffffffffffffffffffffffffff167fcc049c6e74d28eb24241b9d85bef4d22e1fddec17be61d05c8d5ce29afa3e93883604051610eba91906122ad565b60405180910390a35b50505050505050565b6000816000015182602001516201518042610ee79190612474565b604051602001610ef99392919061211c565b6040516020818303038152906040528051906020012060001c9050919050565b7f86963f192fc176491b7bfa89b708538409f462c751c0ec1af0c0d95c9ddb801d610f4b81610f466110ab565b6110b3565b6000610f5683610596565b9050610f6c81609a61146a90919063ffffffff16565b5082609c600083815260200190815260200160002060008201518160000160006101000a81548173ffffffffffffffffffffffffffffffffffffffff021916908373ffffffffffffffffffffffffffffffffffffffff16021790555060208201518160010155905050505050565b610fe382610672565b610ff481610fef6110ab565b6110b3565b610ffe8383611252565b505050565b7f86963f192fc176491b7bfa89b708538409f462c751c0ec1af0c0d95c9ddb801d81565b60007f01ffc9a7000000000000000000000000000000000000000000000000000000007bffffffffffffffffffffffffffffffffffffffffffffffffffffffff1916827bffffffffffffffffffffffffffffffffffffffffffffffffffffffff1916149050919050565b60006110a3836000018360001b611484565b905092915050565b600033905090565b6110bd8282610aeb565b61114c576110e28173ffffffffffffffffffffffffffffffffffffffff1660146114a7565b6110f08360001c60206114a7565b604051602001611101929190612026565b6040516020818303038152906040526040517f08c379a000000000000000000000000000000000000000000000000000000000815260040161114391906121ab565b60405180910390fd5b5050565b60606000611160836000016117a1565b905060608190508092505050919050565b61117b8282610aeb565b61124e5760016065600084815260200190815260200160002060000160008373ffffffffffffffffffffffffffffffffffffffff1673ffffffffffffffffffffffffffffffffffffffff16815260200190815260200160002060006101000a81548160ff0219169083151502179055506111f36110ab565b73ffffffffffffffffffffffffffffffffffffffff168173ffffffffffffffffffffffffffffffffffffffff16837f2f8788117e7eff1d82e926ec794901d17c78024a50270940304540a733656f0d60405160405180910390a45b5050565b61125c8282610aeb565b156113305760006065600084815260200190815260200160002060000160008373ffffffffffffffffffffffffffffffffffffffff1673ffffffffffffffffffffffffffffffffffffffff16815260200190815260200160002060006101000a81548160ff0219169083151502179055506112d56110ab565b73ffffffffffffffffffffffffffffffffffffffff168173ffffffffffffffffffffffffffffffffffffffff16837ff6391f5c32d9c69d2a47ea670b442974b53935d1edc7fd64eb21e047a839171b60405160405180910390a45b5050565b600060019054906101000a900460ff168061135a575060008054906101000a900460ff16155b611399576040517f08c379a00000000000000000000000000000000000000000000000000000000081526004016113909061224d565b60405180910390fd5b60008060019054906101000a900460ff1615905080156113e9576001600060016101000a81548160ff02191690831515021790555060016000806101000a81548160ff0219169083151502179055505b6113f16117fd565b6113f96118d6565b6114016119af565b80156114225760008060016101000a81548160ff0219169083151502179055505b50565b61142f8282611171565b5050565b60004342445a60405160200161144c9493929190612060565b6040516020818303038152906040528051906020012060001c905090565b600061147c836000018360001b611a88565b905092915050565b600080836001016000848152602001908152602001600020541415905092915050565b6060600060028360026114ba91906124a5565b6114c491906123e7565b67ffffffffffffffff811115611503577f4e487b7100000000000000000000000000000000000000000000000000000000600052604160045260246000fd5b6040519080825280601f01601f1916602001820160405280156115355781602001600182028036833780820191505090505b5090507f300000000000000000000000000000000000000000000000000000000000000081600081518110611593577f4e487b7100000000000000000000000000000000000000000000000000000000600052603260045260246000fd5b60200101907effffffffffffffffffffffffffffffffffffffffffffffffffffffffffffff1916908160001a9053507f78000000000000000000000000000000000000000000000000000000000000008160018151811061161d577f4e487b7100000000000000000000000000000000000000000000000000000000600052603260045260246000fd5b60200101907effffffffffffffffffffffffffffffffffffffffffffffffffffffffffffff1916908160001a9053506000600184600261165d91906124a5565b61166791906123e7565b90505b6001811115611753577f3031323334353637383961626364656600000000000000000000000000000000600f8616601081106116cf577f4e487b7100000000000000000000000000000000000000000000000000000000600052603260045260246000fd5b1a60f81b82828151811061170c577f4e487b7100000000000000000000000000000000000000000000000000000000600052603260045260246000fd5b60200101907effffffffffffffffffffffffffffffffffffffffffffffffffffffffffffff1916908160001a905350600485901c94508061174c90612633565b905061166a565b5060008414611797576040517f08c379a000000000000000000000000000000000000000000000000000000000815260040161178e906121cd565b60405180910390fd5b8091505092915050565b6060816000018054806020026020016040519081016040528092919081815260200182805480156117f157602002820191906000526020600020905b8154815260200190600101908083116117dd575b50505050509050919050565b600060019054906101000a900460ff1680611823575060008054906101000a900460ff16155b611862576040517f08c379a00000000000000000000000000000000000000000000000000000000081526004016118599061224d565b60405180910390fd5b60008060019054906101000a900460ff1615905080156118b2576001600060016101000a81548160ff02191690831515021790555060016000806101000a81548160ff0219169083151502179055505b80156118d35760008060016101000a81548160ff0219169083151502179055505b50565b600060019054906101000a900460ff16806118fc575060008054906101000a900460ff16155b61193b576040517f08c379a00000000000000000000000000000000000000000000000000000000081526004016119329061224d565b60405180910390fd5b60008060019054906101000a900460ff16159050801561198b576001600060016101000a81548160ff02191690831515021790555060016000806101000a81548160ff0219169083151502179055505b80156119ac5760008060016101000a81548160ff0219169083151502179055505b50565b600060019054906101000a900460ff16806119d5575060008054906101000a900460ff16155b611a14576040517f08c379a0000000000000000000000000000000000000000000000000000000008152600401611a0b9061224d565b60405180910390fd5b60008060019054906101000a900460ff161590508015611a64576001600060016101000a81548160ff02191690831515021790555060016000806101000a81548160ff0219169083151502179055505b8015611a855760008060016101000a81548160ff0219169083151502179055505b50565b6000611a948383611484565b611aed578260000182908060018154018082558091505060019003906000526020600020016000909190919091505582600001805490508360010160008481526020019081526020016000208190555060019050611af2565b600090505b92915050565b6000611b0b611b0684612323565b6122fe565b90508083825260208201905082856040860282011115611b2a57600080fd5b60005b85811015611b5a5781611b408882611bcd565b845260208401935060408301925050600181019050611b2d565b5050509392505050565b600081359050611b738161296d565b92915050565b600082601f830112611b8a57600080fd5b8135611b9a848260208601611af8565b91505092915050565b600081359050611bb281612984565b92915050565b600081359050611bc78161299b565b92915050565b600060408284031215611bdf57600080fd5b611be960406122fe565b90506000611bf984828501611b64565b6000830152506020611c0d84828501611c19565b60208301525092915050565b600081359050611c28816129b2565b92915050565b600060208284031215611c4057600080fd5b600082013567ffffffffffffffff811115611c5a57600080fd5b611c6684828501611b79565b91505092915050565b600060208284031215611c8157600080fd5b6000611c8f84828501611ba3565b91505092915050565b60008060408385031215611cab57600080fd5b6000611cb985828601611ba3565b9250506020611cca85828601611b64565b9150509250929050565b600060208284031215611ce657600080fd5b6000611cf484828501611bb8565b91505092915050565b600060408284031215611d0f57600080fd5b6000611d1d84828501611bcd565b91505092915050565b60008060808385031215611d3957600080fd5b6000611d4785828601611bcd565b9250506040611d5885828601611bcd565b9150509250929050565b600060208284031215611d7457600080fd5b6000611d8284828501611c19565b91505092915050565b6000611d978383611fe2565b60208301905092915050565b611dac81612567565b82525050565b6000611dbd8261235f565b611dc78185612382565b9350611dd28361234f565b8060005b83811015611e03578151611dea8882611d8b565b9750611df583612375565b925050600181019050611dd6565b5085935050505092915050565b611e1981612579565b82525050565b611e2881612585565b82525050565b6000611e398261236a565b611e438185612393565b9350611e53818560208601612600565b611e5c8161279f565b840191505092915050565b6000611e728261236a565b611e7c81856123a4565b9350611e8c818560208601612600565b80840191505092915050565b6000611ea5602083612393565b9150611eb0826127b0565b602082019050919050565b6000611ec8601183612393565b9150611ed3826127d9565b602082019050919050565b6000611eeb601e83612393565b9150611ef682612802565b602082019050919050565b6000611f0e601283612393565b9150611f198261282b565b602082019050919050565b6000611f31602e83612393565b9150611f3c82612854565b604082019050919050565b6000611f54601283612393565b9150611f5f826128a3565b602082019050919050565b6000611f776017836123a4565b9150611f82826128cc565b601782019050919050565b6000611f9a6011836123a4565b9150611fa5826128f5565b601182019050919050565b6000611fbd602f83612393565b9150611fc88261291e565b604082019050919050565b611fdc816125bb565b82525050565b611feb816125e9565b82525050565b611ffa816125e9565b82525050565b61201161200c826125e9565b6126d7565b82525050565b612020816125f3565b82525050565b600061203182611f6a565b915061203d8285611e67565b915061204882611f8d565b91506120548284611e67565b91508190509392505050565b600061206c8287612000565b60208201915061207c8286612000565b60208201915061208c8285612000565b60208201915061209c8284612000565b60208201915081905095945050505050565b60006040820190506120c36000830185611da3565b6120d06020830184611ff1565b9392505050565b60006080820190506120ec6000830187611da3565b6120f96020830186611ff1565b6121066040830185611da3565b6121136060830184611ff1565b95945050505050565b60006060820190506121316000830186611da3565b61213e6020830185611ff1565b61214b6040830184611ff1565b949350505050565b6000602082019050818103600083015261216d8184611db2565b905092915050565b600060208201905061218a6000830184611e10565b92915050565b60006020820190506121a56000830184611e1f565b92915050565b600060208201905081810360008301526121c58184611e2e565b905092915050565b600060208201905081810360008301526121e681611e98565b9050919050565b6000602082019050818103600083015261220681611ebb565b9050919050565b6000602082019050818103600083015261222681611ede565b9050919050565b6000602082019050818103600083015261224681611f01565b9050919050565b6000602082019050818103600083015261226681611f24565b9050919050565b6000602082019050818103600083015261228681611f47565b9050919050565b600060208201905081810360008301526122a681611fb0565b9050919050565b60006020820190506122c26000830184611fd3565b92915050565b60006020820190506122dd6000830184611ff1565b92915050565b60006020820190506122f86000830184612017565b92915050565b6000612308612319565b9050612314828261265d565b919050565b6000604051905090565b600067ffffffffffffffff82111561233e5761233d612770565b5b602082029050602081019050919050565b6000819050602082019050919050565b600081519050919050565b600081519050919050565b6000602082019050919050565b600082825260208201905092915050565b600082825260208201905092915050565b600081905092915050565b60006123ba826125bb565b91506123c5836125bb565b92508261ffff038211156123dc576123db612712565b5b828201905092915050565b60006123f2826125e9565b91506123fd836125e9565b9250827fffffffffffffffffffffffffffffffffffffffffffffffffffffffffffffffff0382111561243257612431612712565b5b828201905092915050565b6000612448826125f3565b9150612453836125f3565b92508260ff0382111561246957612468612712565b5b828201905092915050565b600061247f826125e9565b915061248a836125e9565b92508261249a57612499612741565b5b828204905092915050565b60006124b0826125e9565b91506124bb836125e9565b9250817fffffffffffffffffffffffffffffffffffffffffffffffffffffffffffffffff04831182151516156124f4576124f3612712565b5b828202905092915050565b600061250a826125bb565b9150612515836125bb565b92508282101561252857612527612712565b5b828203905092915050565b600061253e826125e9565b9150612549836125e9565b92508282101561255c5761255b612712565b5b828203905092915050565b6000612572826125c9565b9050919050565b60008115159050919050565b6000819050919050565b60007fffffffff0000000000000000000000000000000000000000000000000000000082169050919050565b600061ffff82169050919050565b600073ffffffffffffffffffffffffffffffffffffffff82169050919050565b6000819050919050565b600060ff82169050919050565b60005b8381101561261e578082015181840152602081019050612603565b8381111561262d576000848401525b50505050565b600061263e826125e9565b9150600082141561265257612651612712565b5b600182039050919050565b6126668261279f565b810181811067ffffffffffffffff8211171561268557612684612770565b5b80604052505050565b6000612699826125e9565b91507fffffffffffffffffffffffffffffffffffffffffffffffffffffffffffffffff8214156126cc576126cb612712565b5b600182019050919050565b6000819050919050565b60006126ec826125e9565b91506126f7836125e9565b92508261270757612706612741565b5b828206905092915050565b7f4e487b7100000000000000000000000000000000000000000000000000000000600052601160045260246000fd5b7f4e487b7100000000000000000000000000000000000000000000000000000000600052601260045260246000fd5b7f4e487b7100000000000000000000000000000000000000000000000000000000600052604160045260246000fd5b6000601f19601f8301169050919050565b7f537472696e67733a20686578206c656e67746820696e73756666696369656e74600082015250565b7f50554d504b494e5f5f4241475f46554c4c000000000000000000000000000000600082015250565b7f50554d504b494e5f5f414c52454144595f564953495445445f544f4441590000600082015250565b7f50554d504b494e5f5f544f4f5f54495245440000000000000000000000000000600082015250565b7f496e697469616c697a61626c653a20636f6e747261637420697320616c72656160008201527f647920696e697469616c697a6564000000000000000000000000000000000000602082015250565b7f50554d504b494e5f5f4e4f5f414e535745520000000000000000000000000000600082015250565b7f416363657373436f6e74726f6c3a206163636f756e7420000000000000000000600082015250565b7f206973206d697373696e6720726f6c6520000000000000000000000000000000600082015250565b7f416363657373436f6e74726f6c3a2063616e206f6e6c792072656e6f756e636560008201527f20726f6c657320666f722073656c660000000000000000000000000000000000602082015250565b61297681612567565b811461298157600080fd5b50565b61298d81612585565b811461299857600080fd5b50565b6129a48161258f565b81146129af57600080fd5b50565b6129bb816125e9565b81146129c657600080fd5b5056fea2646970667358221220a9ea9d0c3a269b1877b8fd69cae0edbf2a8f63022680cf8e05b7541894e7d2ce64736f6c63430008040033",
  "linkReferences": {},
  "deployedLinkReferences": {}
}