{
  "_format": "hh-sol-artifact-1",
  "contractName": "TrickOrTreat",
  "sourceName": "contracts/TrickOrTreat.sol",
  "abi": [
    {
      "anonymous": false,
      "inputs": [
        {
          "indexed": true,
          "internalType": "bytes32",
          "name": "role",
          "type": "bytes32"
        },
        {
          "indexed": true,
          "internalType": "bytes32",
          "name": "previousAdminRole",
          "type": "bytes32"
        },
        {
          "indexed": true,
          "internalType": "bytes32",
          "name": "newAdminRole",
          "type": "bytes32"
        }
      ],
      "name": "RoleAdminChanged",
      "type": "event"
    },
    {
      "anonymous": false,
      "inputs": [
        {
          "indexed": true,
          "internalType": "bytes32",
          "name": "role",
          "type": "bytes32"
        },
        {
          "indexed": true,
          "internalType": "address",
          "name": "account",
          "type": "address"
        },
        {
          "indexed": true,
          "internalType": "address",
          "name": "sender",
          "type": "address"
        }
      ],
      "name": "RoleGranted",
      "type": "event"
    },
    {
      "anonymous": false,
      "inputs": [
        {
          "indexed": true,
          "internalType": "bytes32",
          "name": "role",
          "type": "bytes32"
        },
        {
          "indexed": true,
          "internalType": "address",
          "name": "account",
          "type": "address"
        },
        {
          "indexed": true,
          "internalType": "address",
          "name": "sender",
          "type": "address"
        }
      ],
      "name": "RoleRevoked",
      "type": "event"
    },
    {
      "anonymous": false,
      "inputs": [
        {
          "indexed": true,
          "internalType": "address",
          "name": "visitorContractAddress",
          "type": "address"
        },
        {
          "indexed": true,
          "internalType": "uint256",
          "name": "visitorTokenId",
          "type": "uint256"
        },
        {
          "indexed": false,
          "internalType": "uint16",
          "name": "amount",
          "type": "uint16"
        }
      ],
      "name": "Treated",
      "type": "event"
    },
    {
      "anonymous": false,
      "inputs": [
        {
          "indexed": true,
          "internalType": "address",
          "name": "visitorContractAddress",
          "type": "address"
        },
        {
          "indexed": true,
          "internalType": "uint256",
          "name": "visitorTokenId",
          "type": "uint256"
        },
        {
          "indexed": false,
          "internalType": "uint16",
          "name": "amount",
          "type": "uint16"
        }
      ],
      "name": "Tricked",
      "type": "event"
    },
    {
      "inputs": [],
      "name": "DEFAULT_ADMIN_ROLE",
      "outputs": [
        {
          "internalType": "bytes32",
          "name": "",
          "type": "bytes32"
        }
      ],
      "stateMutability": "view",
      "type": "function"
    },
    {
      "inputs": [],
      "name": "DOORMAN",
      "outputs": [
        {
          "internalType": "bytes32",
          "name": "",
          "type": "bytes32"
        }
      ],
      "stateMutability": "view",
      "type": "function"
    },
    {
      "inputs": [
        {
          "components": [
            {
              "internalType": "address",
              "name": "contractAddress",
              "type": "address"
            },
            {
              "internalType": "uint256",
              "name": "tokenId",
              "type": "uint256"
            }
          ],
          "internalType": "struct TrickOrTreat.NFT",
          "name": "visitor",
          "type": "tuple"
        }
      ],
      "name": "bagContents",
      "outputs": [
        {
          "internalType": "uint16",
          "name": "",
          "type": "uint16"
        }
      ],
      "stateMutability": "view",
      "type": "function"
    },
    {
      "inputs": [
        {
          "components": [
            {
              "internalType": "address",
              "name": "contractAddress",
              "type": "address"
            },
            {
              "internalType": "uint256",
              "name": "tokenId",
              "type": "uint256"
            }
          ],
          "internalType": "struct TrickOrTreat.NFT",
          "name": "visitor",
          "type": "tuple"
        },
        {
          "components": [
            {
              "internalType": "address",
              "name": "contractAddress",
              "type": "address"
            },
            {
              "internalType": "uint256",
              "name": "tokenId",
              "type": "uint256"
            }
          ],
          "internalType": "struct TrickOrTreat.NFT",
          "name": "place",
          "type": "tuple"
        }
      ],
      "name": "canRingDoorbell",
      "outputs": [],
      "stateMutability": "view",
      "type": "function"
    },
    {
      "inputs": [
        {
          "internalType": "uint256",
          "name": "",
          "type": "uint256"
        }
      ],
      "name": "dailyVisits",
      "outputs": [
        {
          "internalType": "uint8",
          "name": "",
          "type": "uint8"
        }
      ],
      "stateMutability": "view",
      "type": "function"
    },
    {
      "inputs": [
        {
          "internalType": "bytes32",
          "name": "role",
          "type": "bytes32"
        }
      ],
      "name": "getRoleAdmin",
      "outputs": [
        {
          "internalType": "bytes32",
          "name": "",
          "type": "bytes32"
        }
      ],
      "stateMutability": "view",
      "type": "function"
    },
    {
      "inputs": [
        {
          "internalType": "bytes32",
          "name": "role",
          "type": "bytes32"
        },
        {
          "internalType": "address",
          "name": "account",
          "type": "address"
        }
      ],
      "name": "grantRole",
      "outputs": [],
      "stateMutability": "nonpayable",
      "type": "function"
    },
    {
      "inputs": [
        {
          "internalType": "bytes32",
          "name": "role",
          "type": "bytes32"
        },
        {
          "internalType": "address",
          "name": "account",
          "type": "address"
        }
      ],
      "name": "hasRole",
      "outputs": [
        {
          "internalType": "bool",
          "name": "",
          "type": "bool"
        }
      ],
      "stateMutability": "view",
      "type": "function"
    },
    {
      "inputs": [],
      "name": "initialize",
      "outputs": [],
      "stateMutability": "nonpayable",
      "type": "function"
    },
    {
      "inputs": [
        {
          "internalType": "uint256",
          "name": "",
          "type": "uint256"
        }
      ],
      "name": "placeVisits",
      "outputs": [
        {
          "internalType": "uint256",
          "name": "",
          "type": "uint256"
        }
      ],
      "stateMutability": "view",
      "type": "function"
    },
    {
      "inputs": [
        {
          "internalType": "bytes32",
          "name": "role",
          "type": "bytes32"
        },
        {
          "internalType": "address",
          "name": "account",
          "type": "address"
        }
      ],
      "name": "renounceRole",
      "outputs": [],
      "stateMutability": "nonpayable",
      "type": "function"
    },
    {
      "inputs": [
        {
          "internalType": "bytes32",
          "name": "role",
          "type": "bytes32"
        },
        {
          "internalType": "address",
          "name": "account",
          "type": "address"
        }
      ],
      "name": "revokeRole",
      "outputs": [],
      "stateMutability": "nonpayable",
      "type": "function"
    },
    {
      "inputs": [
        {
          "components": [
            {
              "internalType": "address",
              "name": "contractAddress",
              "type": "address"
            },
            {
              "internalType": "uint256",
              "name": "tokenId",
              "type": "uint256"
            }
          ],
          "internalType": "struct TrickOrTreat.NFT",
          "name": "visitor",
          "type": "tuple"
        },
        {
          "components": [
            {
              "internalType": "address",
              "name": "contractAddress",
              "type": "address"
            },
            {
              "internalType": "uint256",
              "name": "tokenId",
              "type": "uint256"
            }
          ],
          "internalType": "struct TrickOrTreat.NFT",
          "name": "place",
          "type": "tuple"
        }
      ],
      "name": "ringDoorbell",
      "outputs": [],
      "stateMutability": "nonpayable",
      "type": "function"
    },
    {
      "inputs": [
        {
          "internalType": "bytes4",
          "name": "interfaceId",
          "type": "bytes4"
        }
      ],
      "name": "supportsInterface",
      "outputs": [
        {
          "internalType": "bool",
          "name": "",
          "type": "bool"
        }
      ],
      "stateMutability": "view",
      "type": "function"
    },
    {
      "inputs": [
        {
          "internalType": "uint256",
          "name": "",
          "type": "uint256"
        }
      ],
      "name": "treats",
      "outputs": [
        {
          "internalType": "uint16",
          "name": "",
          "type": "uint16"
        }
      ],
      "stateMutability": "view",
      "type": "function"
    }
  ],
  "bytecode": "0x608060405234801561001057600080fd5b506122d5806100206000396000f3fe608060405234801561001057600080fd5b50600436106100f45760003560e01c806379e16d0c11610097578063b1d8a34011610066578063b1d8a34014610295578063be4d04ca146102c5578063d547741f146102e1578063fed4b4ea146102fd576100f4565b806379e16d0c1461020d5780638129fc1c1461023d57806391d1485414610247578063a217fddf14610277576100f4565b80632f2ff15d116100d35780632f2ff15d14610189578063311d3bd2146101a557806336568abe146101c15780635c34e7b0146101dd576100f4565b806210b585146100f957806301ffc9a714610129578063248a9ca314610159575b600080fd5b610113600480360381019061010e9190611728565b61031b565b6040516101209190611c31565b60405180910390f35b610143600480360381019061013e91906116ff565b610353565b6040516101509190611af9565b60405180910390f35b610173600480360381019061016e919061169a565b6103cd565b6040516101809190611b14565b60405180910390f35b6101a3600480360381019061019e91906116c3565b6103ed565b005b6101bf60048036038101906101ba9190611751565b610416565b005b6101db60048036038101906101d691906116c3565b61060f565b005b6101f760048036038101906101f2919061178d565b610692565b6040516102049190611c67565b60405180910390f35b6102276004803603810190610222919061178d565b6106b2565b6040516102349190611c31565b60405180910390f35b6102456106d3565b005b610261600480360381019061025c91906116c3565b6107c1565b60405161026e9190611af9565b60405180910390f35b61027f61082c565b60405161028c9190611b14565b60405180910390f35b6102af60048036038101906102aa919061178d565b610833565b6040516102bc9190611c4c565b60405180910390f35b6102df60048036038101906102da9190611751565b61084b565b005b6102fb60048036038101906102f691906116c3565b610b4c565b005b610305610b75565b6040516103129190611b14565b60405180910390f35b60008061032783610b99565b90506099600082815260200190815260200160002060009054906101000a900461ffff16915050919050565b60007f7965db0b000000000000000000000000000000000000000000000000000000007bffffffffffffffffffffffffffffffffffffffffffffffffffffffff1916827bffffffffffffffffffffffffffffffffffffffffffffffffffffffff191614806103c657506103c582610bd6565b5b9050919050565b600060656000838152602001908152602001600020600101549050919050565b6103f6826103cd565b61040781610402610c40565b610c48565b6104118383610ce5565b505050565b600061042183610b99565b90506101f46099600083815260200190815260200160002060009054906101000a900461ffff1661ffff161061048c576040517f08c379a000000000000000000000000000000000000000000000000000000000815260040161048390611b71565b60405180910390fd5b600061049784610dc6565b9050600c6098600083815260200190815260200160002060009054906101000a900460ff1660ff16106104ff576040517f08c379a00000000000000000000000000000000000000000000000000000000081526004016104f690611bb1565b60405180910390fd5b600061050b8585610e13565b905061e10060976000838152602001908152602001600020544261052f9190611e52565b1161056f576040517f08c379a000000000000000000000000000000000000000000000000000000000815260040161056690611b91565b60405180910390fd5b600084600001518560200151620151804261058a9190611d93565b60405160200161059c93929190611ac2565b6040516020818303038152906040528051906020012060001c905060006008826105c69190611fb7565b1415610607576040517f08c379a00000000000000000000000000000000000000000000000000000000081526004016105fe90611bf1565b60405180910390fd5b505050505050565b610617610c40565b73ffffffffffffffffffffffffffffffffffffffff168173ffffffffffffffffffffffffffffffffffffffff1614610684576040517f08c379a000000000000000000000000000000000000000000000000000000000815260040161067b90611c11565b60405180910390fd5b61068e8282610e5d565b5050565b60986020528060005260406000206000915054906101000a900460ff1681565b60996020528060005260406000206000915054906101000a900461ffff1681565b600060019054906101000a900460ff16806106f9575060008054906101000a900460ff16155b610738576040517f08c379a000000000000000000000000000000000000000000000000000000000815260040161072f90611bd1565b60405180910390fd5b60008060019054906101000a900460ff161590508015610788576001600060016101000a81548160ff02191690831515021790555060016000806101000a81548160ff0219169083151502179055505b610790610f3f565b61079d6000801b33611030565b80156107be5760008060016101000a81548160ff0219169083151502179055505b50565b60006065600084815260200190815260200160002060000160008373ffffffffffffffffffffffffffffffffffffffff1673ffffffffffffffffffffffffffffffffffffffff16815260200190815260200160002060009054906101000a900460ff16905092915050565b6000801b81565b60976020528060005260406000206000915090505481565b7f86963f192fc176491b7bfa89b708538409f462c751c0ec1af0c0d95c9ddb801d61087d81610878610c40565b610c48565b6108878383610416565b600061089284610b99565b9050600061089f85610dc6565b905060006108ad8686610e13565b905060016098600084815260200190815260200160002060008282829054906101000a900460ff166108df9190611d5c565b92506101000a81548160ff021916908360ff16021790555042609760008381526020019081526020016000208190555060006001600561091d61103e565b6109279190611fb7565b6109319190611d06565b90506000600661093f61103e565b6109499190611fb7565b14801561097b575060006099600086815260200190815260200160002060009054906101000a900461ffff1661ffff16115b15610a91576099600085815260200190815260200160002060009054906101000a900461ffff1661ffff168161ffff16116109b657806109d9565b6099600085815260200190815260200160002060009054906101000a900461ffff165b9050806099600086815260200190815260200160002060009054906101000a900461ffff16610a089190611e1e565b6099600086815260200190815260200160002060006101000a81548161ffff021916908361ffff1602179055508660200151876000015173ffffffffffffffffffffffffffffffffffffffff167f23b9b2d476d90a64ac2a5a600191d156df7c67f5bbbb4ca2a0896359a1ab0b3083604051610a849190611c31565b60405180910390a3610b43565b806099600086815260200190815260200160002060009054906101000a900461ffff16610abe9190611cce565b6099600086815260200190815260200160002060006101000a81548161ffff021916908361ffff1602179055508660200151876000015173ffffffffffffffffffffffffffffffffffffffff167fcc049c6e74d28eb24241b9d85bef4d22e1fddec17be61d05c8d5ce29afa3e93883604051610b3a9190611c31565b60405180910390a35b50505050505050565b610b55826103cd565b610b6681610b61610c40565b610c48565b610b708383610e5d565b505050565b7f86963f192fc176491b7bfa89b708538409f462c751c0ec1af0c0d95c9ddb801d81565b600081600001518260200151604051602001610bb6929190611a54565b6040516020818303038152906040528051906020012060001c9050919050565b60007f01ffc9a7000000000000000000000000000000000000000000000000000000007bffffffffffffffffffffffffffffffffffffffffffffffffffffffff1916827bffffffffffffffffffffffffffffffffffffffffffffffffffffffff1916149050919050565b600033905090565b610c5282826107c1565b610ce157610c778173ffffffffffffffffffffffffffffffffffffffff166014611075565b610c858360001c6020611075565b604051602001610c969291906119cc565b6040516020818303038152906040526040517f08c379a0000000000000000000000000000000000000000000000000000000008152600401610cd89190611b2f565b60405180910390fd5b5050565b610cef82826107c1565b610dc25760016065600084815260200190815260200160002060000160008373ffffffffffffffffffffffffffffffffffffffff1673ffffffffffffffffffffffffffffffffffffffff16815260200190815260200160002060006101000a81548160ff021916908315150217905550610d67610c40565b73ffffffffffffffffffffffffffffffffffffffff168173ffffffffffffffffffffffffffffffffffffffff16837f2f8788117e7eff1d82e926ec794901d17c78024a50270940304540a733656f0d60405160405180910390a45b5050565b6000816000015182602001516201518042610de19190611d93565b604051602001610df393929190611ac2565b6040516020818303038152906040528051906020012060001c9050919050565b60008260000151836020015183600001518460200151604051602001610e3c9493929190611a7d565b6040516020818303038152906040528051906020012060001c905092915050565b610e6782826107c1565b15610f3b5760006065600084815260200190815260200160002060000160008373ffffffffffffffffffffffffffffffffffffffff1673ffffffffffffffffffffffffffffffffffffffff16815260200190815260200160002060006101000a81548160ff021916908315150217905550610ee0610c40565b73ffffffffffffffffffffffffffffffffffffffff168173ffffffffffffffffffffffffffffffffffffffff16837ff6391f5c32d9c69d2a47ea670b442974b53935d1edc7fd64eb21e047a839171b60405160405180910390a45b5050565b600060019054906101000a900460ff1680610f65575060008054906101000a900460ff16155b610fa4576040517f08c379a0000000000000000000000000000000000000000000000000000000008152600401610f9b90611bd1565b60405180910390fd5b60008060019054906101000a900460ff161590508015610ff4576001600060016101000a81548160ff02191690831515021790555060016000806101000a81548160ff0219169083151502179055505b610ffc61136f565b611004611448565b61100c611521565b801561102d5760008060016101000a81548160ff0219169083151502179055505b50565b61103a8282610ce5565b5050565b60004342445a6040516020016110579493929190611a06565b6040516020818303038152906040528051906020012060001c905090565b6060600060028360026110889190611dc4565b6110929190611d06565b67ffffffffffffffff8111156110d1577f4e487b7100000000000000000000000000000000000000000000000000000000600052604160045260246000fd5b6040519080825280601f01601f1916602001820160405280156111035781602001600182028036833780820191505090505b5090507f300000000000000000000000000000000000000000000000000000000000000081600081518110611161577f4e487b7100000000000000000000000000000000000000000000000000000000600052603260045260246000fd5b60200101907effffffffffffffffffffffffffffffffffffffffffffffffffffffffffffff1916908160001a9053507f7800000000000000000000000000000000000000000000000000000000000000816001815181106111eb577f4e487b7100000000000000000000000000000000000000000000000000000000600052603260045260246000fd5b60200101907effffffffffffffffffffffffffffffffffffffffffffffffffffffffffffff1916908160001a9053506000600184600261122b9190611dc4565b6112359190611d06565b90505b6001811115611321577f3031323334353637383961626364656600000000000000000000000000000000600f86166010811061129d577f4e487b7100000000000000000000000000000000000000000000000000000000600052603260045260246000fd5b1a60f81b8282815181106112da577f4e487b7100000000000000000000000000000000000000000000000000000000600052603260045260246000fd5b60200101907effffffffffffffffffffffffffffffffffffffffffffffffffffffffffffff1916908160001a905350600485901c94508061131a90611f52565b9050611238565b5060008414611365576040517f08c379a000000000000000000000000000000000000000000000000000000000815260040161135c90611b51565b60405180910390fd5b8091505092915050565b600060019054906101000a900460ff1680611395575060008054906101000a900460ff16155b6113d4576040517f08c379a00000000000000000000000000000000000000000000000000000000081526004016113cb90611bd1565b60405180910390fd5b60008060019054906101000a900460ff161590508015611424576001600060016101000a81548160ff02191690831515021790555060016000806101000a81548160ff0219169083151502179055505b80156114455760008060016101000a81548160ff0219169083151502179055505b50565b600060019054906101000a900460ff168061146e575060008054906101000a900460ff16155b6114ad576040517f08c379a00000000000000000000000000000000000000000000000000000000081526004016114a490611bd1565b60405180910390fd5b60008060019054906101000a900460ff1615905080156114fd576001600060016101000a81548160ff02191690831515021790555060016000806101000a81548160ff0219169083151502179055505b801561151e5760008060016101000a81548160ff0219169083151502179055505b50565b600060019054906101000a900460ff1680611547575060008054906101000a900460ff16155b611586576040517f08c379a000000000000000000000000000000000000000000000000000000000815260040161157d90611bd1565b60405180910390fd5b60008060019054906101000a900460ff1615905080156115d6576001600060016101000a81548160ff02191690831515021790555060016000806101000a81548160ff0219169083151502179055505b80156115f75760008060016101000a81548160ff0219169083151502179055505b50565b60008135905061160981612243565b92915050565b60008135905061161e8161225a565b92915050565b60008135905061163381612271565b92915050565b60006040828403121561164b57600080fd5b6116556040611c82565b90506000611665848285016115fa565b600083015250602061167984828501611685565b60208301525092915050565b60008135905061169481612288565b92915050565b6000602082840312156116ac57600080fd5b60006116ba8482850161160f565b91505092915050565b600080604083850312156116d657600080fd5b60006116e48582860161160f565b92505060206116f5858286016115fa565b9150509250929050565b60006020828403121561171157600080fd5b600061171f84828501611624565b91505092915050565b60006040828403121561173a57600080fd5b600061174884828501611639565b91505092915050565b6000806080838503121561176457600080fd5b600061177285828601611639565b925050604061178385828601611639565b9150509250929050565b60006020828403121561179f57600080fd5b60006117ad84828501611685565b91505092915050565b6117bf81611e86565b82525050565b6117ce81611e98565b82525050565b6117dd81611ea4565b82525050565b60006117ee82611ca7565b6117f88185611cb2565b9350611808818560208601611f1f565b61181181612075565b840191505092915050565b600061182782611ca7565b6118318185611cc3565b9350611841818560208601611f1f565b80840191505092915050565b600061185a602083611cb2565b915061186582612086565b602082019050919050565b600061187d601183611cb2565b9150611888826120af565b602082019050919050565b60006118a0601e83611cb2565b91506118ab826120d8565b602082019050919050565b60006118c3601283611cb2565b91506118ce82612101565b602082019050919050565b60006118e6602e83611cb2565b91506118f18261212a565b604082019050919050565b6000611909601283611cb2565b915061191482612179565b602082019050919050565b600061192c601783611cc3565b9150611937826121a2565b601782019050919050565b600061194f601183611cc3565b915061195a826121cb565b601182019050919050565b6000611972602f83611cb2565b915061197d826121f4565b604082019050919050565b61199181611eda565b82525050565b6119a081611f08565b82525050565b6119b76119b282611f08565b611fad565b82525050565b6119c681611f12565b82525050565b60006119d78261191f565b91506119e3828561181c565b91506119ee82611942565b91506119fa828461181c565b91508190509392505050565b6000611a1282876119a6565b602082019150611a2282866119a6565b602082019150611a3282856119a6565b602082019150611a4282846119a6565b60208201915081905095945050505050565b6000604082019050611a6960008301856117b6565b611a766020830184611997565b9392505050565b6000608082019050611a9260008301876117b6565b611a9f6020830186611997565b611aac60408301856117b6565b611ab96060830184611997565b95945050505050565b6000606082019050611ad760008301866117b6565b611ae46020830185611997565b611af16040830184611997565b949350505050565b6000602082019050611b0e60008301846117c5565b92915050565b6000602082019050611b2960008301846117d4565b92915050565b60006020820190508181036000830152611b4981846117e3565b905092915050565b60006020820190508181036000830152611b6a8161184d565b9050919050565b60006020820190508181036000830152611b8a81611870565b9050919050565b60006020820190508181036000830152611baa81611893565b9050919050565b60006020820190508181036000830152611bca816118b6565b9050919050565b60006020820190508181036000830152611bea816118d9565b9050919050565b60006020820190508181036000830152611c0a816118fc565b9050919050565b60006020820190508181036000830152611c2a81611965565b9050919050565b6000602082019050611c466000830184611988565b92915050565b6000602082019050611c616000830184611997565b92915050565b6000602082019050611c7c60008301846119bd565b92915050565b6000611c8c611c9d565b9050611c988282611f7c565b919050565b6000604051905090565b600081519050919050565b600082825260208201905092915050565b600081905092915050565b6000611cd982611eda565b9150611ce483611eda565b92508261ffff03821115611cfb57611cfa611fe8565b5b828201905092915050565b6000611d1182611f08565b9150611d1c83611f08565b9250827fffffffffffffffffffffffffffffffffffffffffffffffffffffffffffffffff03821115611d5157611d50611fe8565b5b828201905092915050565b6000611d6782611f12565b9150611d7283611f12565b92508260ff03821115611d8857611d87611fe8565b5b828201905092915050565b6000611d9e82611f08565b9150611da983611f08565b925082611db957611db8612017565b5b828204905092915050565b6000611dcf82611f08565b9150611dda83611f08565b9250817fffffffffffffffffffffffffffffffffffffffffffffffffffffffffffffffff0483118215151615611e1357611e12611fe8565b5b828202905092915050565b6000611e2982611eda565b9150611e3483611eda565b925082821015611e4757611e46611fe8565b5b828203905092915050565b6000611e5d82611f08565b9150611e6883611f08565b925082821015611e7b57611e7a611fe8565b5b828203905092915050565b6000611e9182611ee8565b9050919050565b60008115159050919050565b6000819050919050565b60007fffffffff0000000000000000000000000000000000000000000000000000000082169050919050565b600061ffff82169050919050565b600073ffffffffffffffffffffffffffffffffffffffff82169050919050565b6000819050919050565b600060ff82169050919050565b60005b83811015611f3d578082015181840152602081019050611f22565b83811115611f4c576000848401525b50505050565b6000611f5d82611f08565b91506000821415611f7157611f70611fe8565b5b600182039050919050565b611f8582612075565b810181811067ffffffffffffffff82111715611fa457611fa3612046565b5b80604052505050565b6000819050919050565b6000611fc282611f08565b9150611fcd83611f08565b925082611fdd57611fdc612017565b5b828206905092915050565b7f4e487b7100000000000000000000000000000000000000000000000000000000600052601160045260246000fd5b7f4e487b7100000000000000000000000000000000000000000000000000000000600052601260045260246000fd5b7f4e487b7100000000000000000000000000000000000000000000000000000000600052604160045260246000fd5b6000601f19601f8301169050919050565b7f537472696e67733a20686578206c656e67746820696e73756666696369656e74600082015250565b7f50554d504b494e5f5f4241475f46554c4c000000000000000000000000000000600082015250565b7f50554d504b494e5f5f414c52454144595f564953495445445f544f4441590000600082015250565b7f50554d504b494e5f5f544f4f5f54495245440000000000000000000000000000600082015250565b7f496e697469616c697a61626c653a20636f6e747261637420697320616c72656160008201527f647920696e697469616c697a6564000000000000000000000000000000000000602082015250565b7f50554d504b494e5f5f4e4f5f414e535745520000000000000000000000000000600082015250565b7f416363657373436f6e74726f6c3a206163636f756e7420000000000000000000600082015250565b7f206973206d697373696e6720726f6c6520000000000000000000000000000000600082015250565b7f416363657373436f6e74726f6c3a2063616e206f6e6c792072656e6f756e636560008201527f20726f6c657320666f722073656c660000000000000000000000000000000000602082015250565b61224c81611e86565b811461225757600080fd5b50565b61226381611ea4565b811461226e57600080fd5b50565b61227a81611eae565b811461228557600080fd5b50565b61229181611f08565b811461229c57600080fd5b5056fea2646970667358221220da4db36ffd3157d5c35e835a566262ec50bedc33af50e5b60844f3bbd920a62264736f6c63430008040033",
  "linkReferences": {},
  "deployedLinkReferences": {}
}