{
  "_format": "hh-sol-artifact-1",
  "contractName": "TrickOrTreat",
  "sourceName": "contracts/TrickOrTreat.sol",
  "abi": [
    {
      "anonymous": false,
      "inputs": [
        {
          "indexed": true,
          "internalType": "bytes32",
          "name": "role",
          "type": "bytes32"
        },
        {
          "indexed": true,
          "internalType": "bytes32",
          "name": "previousAdminRole",
          "type": "bytes32"
        },
        {
          "indexed": true,
          "internalType": "bytes32",
          "name": "newAdminRole",
          "type": "bytes32"
        }
      ],
      "name": "RoleAdminChanged",
      "type": "event"
    },
    {
      "anonymous": false,
      "inputs": [
        {
          "indexed": true,
          "internalType": "bytes32",
          "name": "role",
          "type": "bytes32"
        },
        {
          "indexed": true,
          "internalType": "address",
          "name": "account",
          "type": "address"
        },
        {
          "indexed": true,
          "internalType": "address",
          "name": "sender",
          "type": "address"
        }
      ],
      "name": "RoleGranted",
      "type": "event"
    },
    {
      "anonymous": false,
      "inputs": [
        {
          "indexed": true,
          "internalType": "bytes32",
          "name": "role",
          "type": "bytes32"
        },
        {
          "indexed": true,
          "internalType": "address",
          "name": "account",
          "type": "address"
        },
        {
          "indexed": true,
          "internalType": "address",
          "name": "sender",
          "type": "address"
        }
      ],
      "name": "RoleRevoked",
      "type": "event"
    },
    {
      "anonymous": false,
      "inputs": [
        {
          "indexed": true,
          "internalType": "address",
          "name": "visitorContractAddress",
          "type": "address"
        },
        {
          "indexed": true,
          "internalType": "uint256",
          "name": "visitorTokenId",
          "type": "uint256"
        },
        {
          "indexed": false,
          "internalType": "uint16",
          "name": "amount",
          "type": "uint16"
        }
      ],
      "name": "Treated",
      "type": "event"
    },
    {
      "anonymous": false,
      "inputs": [
        {
          "indexed": true,
          "internalType": "address",
          "name": "visitorContractAddress",
          "type": "address"
        },
        {
          "indexed": true,
          "internalType": "uint256",
          "name": "visitorTokenId",
          "type": "uint256"
        },
        {
          "indexed": false,
          "internalType": "uint16",
          "name": "amount",
          "type": "uint16"
        }
      ],
      "name": "Tricked",
      "type": "event"
    },
    {
      "inputs": [],
      "name": "DEFAULT_ADMIN_ROLE",
      "outputs": [
        {
          "internalType": "bytes32",
          "name": "",
          "type": "bytes32"
        }
      ],
      "stateMutability": "view",
      "type": "function"
    },
    {
      "inputs": [],
      "name": "DOORMAN",
      "outputs": [
        {
          "internalType": "bytes32",
          "name": "",
          "type": "bytes32"
        }
      ],
      "stateMutability": "view",
      "type": "function"
    },
    {
      "inputs": [
        {
          "components": [
            {
              "internalType": "address",
              "name": "contractAddress",
              "type": "address"
            },
            {
              "internalType": "uint256",
              "name": "tokenId",
              "type": "uint256"
            }
          ],
          "internalType": "struct TrickOrTreat.NFT",
          "name": "visitor",
          "type": "tuple"
        }
      ],
      "name": "addVisitor",
      "outputs": [],
      "stateMutability": "nonpayable",
      "type": "function"
    },
    {
      "inputs": [
        {
          "components": [
            {
              "internalType": "address",
              "name": "contractAddress",
              "type": "address"
            },
            {
              "internalType": "uint256",
              "name": "tokenId",
              "type": "uint256"
            }
          ],
          "internalType": "struct TrickOrTreat.NFT",
          "name": "visitor",
          "type": "tuple"
        }
      ],
      "name": "bagContents",
      "outputs": [
        {
          "internalType": "uint16",
          "name": "",
          "type": "uint16"
        }
      ],
      "stateMutability": "view",
      "type": "function"
    },
    {
      "inputs": [
        {
          "components": [
            {
              "internalType": "address",
              "name": "contractAddress",
              "type": "address"
            },
            {
              "internalType": "uint256",
              "name": "tokenId",
              "type": "uint256"
            }
          ],
          "internalType": "struct TrickOrTreat.NFT",
          "name": "visitor",
          "type": "tuple"
        },
        {
          "components": [
            {
              "internalType": "address",
              "name": "contractAddress",
              "type": "address"
            },
            {
              "internalType": "uint256",
              "name": "tokenId",
              "type": "uint256"
            }
          ],
          "internalType": "struct TrickOrTreat.NFT",
          "name": "place",
          "type": "tuple"
        }
      ],
      "name": "canRingDoorbell",
      "outputs": [],
      "stateMutability": "view",
      "type": "function"
    },
    {
      "inputs": [
        {
          "internalType": "uint256",
          "name": "",
          "type": "uint256"
        }
      ],
      "name": "dailyVisits",
      "outputs": [
        {
          "internalType": "uint8",
          "name": "",
          "type": "uint8"
        }
      ],
      "stateMutability": "view",
      "type": "function"
    },
    {
      "inputs": [
        {
          "components": [
            {
              "internalType": "address",
              "name": "contractAddress",
              "type": "address"
            },
            {
              "internalType": "uint256",
              "name": "tokenId",
              "type": "uint256"
            }
          ],
          "internalType": "struct TrickOrTreat.NFT",
          "name": "visitor",
          "type": "tuple"
        },
        {
          "components": [
            {
              "internalType": "address",
              "name": "contractAddress",
              "type": "address"
            },
            {
              "internalType": "uint256",
              "name": "tokenId",
              "type": "uint256"
            }
          ],
          "internalType": "struct TrickOrTreat.NFT",
          "name": "place",
          "type": "tuple"
        }
      ],
      "name": "getPlaceVisitHash",
      "outputs": [
        {
          "internalType": "uint256",
          "name": "",
          "type": "uint256"
        }
      ],
      "stateMutability": "pure",
      "type": "function"
    },
    {
      "inputs": [
        {
          "internalType": "bytes32",
          "name": "role",
          "type": "bytes32"
        }
      ],
      "name": "getRoleAdmin",
      "outputs": [
        {
          "internalType": "bytes32",
          "name": "",
          "type": "bytes32"
        }
      ],
      "stateMutability": "view",
      "type": "function"
    },
    {
      "inputs": [
        {
          "components": [
            {
              "internalType": "address",
              "name": "contractAddress",
              "type": "address"
            },
            {
              "internalType": "uint256",
              "name": "tokenId",
              "type": "uint256"
            }
          ],
          "internalType": "struct TrickOrTreat.NFT",
          "name": "visitor",
          "type": "tuple"
        }
      ],
      "name": "getVisitorHash",
      "outputs": [
        {
          "internalType": "uint256",
          "name": "",
          "type": "uint256"
        }
      ],
      "stateMutability": "pure",
      "type": "function"
    },
    {
      "inputs": [
        {
          "components": [
            {
              "internalType": "address",
              "name": "contractAddress",
              "type": "address"
            },
            {
              "internalType": "uint256",
              "name": "tokenId",
              "type": "uint256"
            }
          ],
          "internalType": "struct TrickOrTreat.NFT",
          "name": "visitor",
          "type": "tuple"
        }
      ],
      "name": "getVisitorTodayHash",
      "outputs": [
        {
          "internalType": "uint256",
          "name": "",
          "type": "uint256"
        }
      ],
      "stateMutability": "view",
      "type": "function"
    },
    {
      "inputs": [
        {
          "internalType": "bytes32",
          "name": "role",
          "type": "bytes32"
        },
        {
          "internalType": "address",
          "name": "account",
          "type": "address"
        }
      ],
      "name": "grantRole",
      "outputs": [],
      "stateMutability": "nonpayable",
      "type": "function"
    },
    {
      "inputs": [
        {
          "internalType": "bytes32",
          "name": "role",
          "type": "bytes32"
        },
        {
          "internalType": "address",
          "name": "account",
          "type": "address"
        }
      ],
      "name": "hasRole",
      "outputs": [
        {
          "internalType": "bool",
          "name": "",
          "type": "bool"
        }
      ],
      "stateMutability": "view",
      "type": "function"
    },
    {
      "inputs": [
        {
          "components": [
            {
              "internalType": "address",
              "name": "contractAddress",
              "type": "address"
            },
            {
              "internalType": "uint256",
              "name": "tokenId",
              "type": "uint256"
            }
          ],
          "internalType": "struct TrickOrTreat.NFT",
          "name": "visitor",
          "type": "tuple"
        }
      ],
      "name": "hasVisitedBefore",
      "outputs": [
        {
          "internalType": "bool",
          "name": "",
          "type": "bool"
        }
      ],
      "stateMutability": "view",
      "type": "function"
    },
    {
      "inputs": [],
      "name": "initialize",
      "outputs": [],
      "stateMutability": "nonpayable",
      "type": "function"
    },
    {
      "inputs": [],
      "name": "listVisitors",
      "outputs": [
        {
          "internalType": "uint256[]",
          "name": "",
          "type": "uint256[]"
        }
      ],
      "stateMutability": "view",
      "type": "function"
    },
    {
      "inputs": [
        {
          "internalType": "uint256",
          "name": "",
          "type": "uint256"
        }
      ],
      "name": "placeVisits",
      "outputs": [
        {
          "internalType": "uint256",
          "name": "",
          "type": "uint256"
        }
      ],
      "stateMutability": "view",
      "type": "function"
    },
    {
      "inputs": [
        {
          "internalType": "bytes32",
          "name": "role",
          "type": "bytes32"
        },
        {
          "internalType": "address",
          "name": "account",
          "type": "address"
        }
      ],
      "name": "renounceRole",
      "outputs": [],
      "stateMutability": "nonpayable",
      "type": "function"
    },
    {
      "inputs": [
        {
          "internalType": "bytes32",
          "name": "role",
          "type": "bytes32"
        },
        {
          "internalType": "address",
          "name": "account",
          "type": "address"
        }
      ],
      "name": "revokeRole",
      "outputs": [],
      "stateMutability": "nonpayable",
      "type": "function"
    },
    {
      "inputs": [
        {
          "components": [
            {
              "internalType": "address",
              "name": "contractAddress",
              "type": "address"
            },
            {
              "internalType": "uint256",
              "name": "tokenId",
              "type": "uint256"
            }
          ],
          "internalType": "struct TrickOrTreat.NFT",
          "name": "visitor",
          "type": "tuple"
        },
        {
          "components": [
            {
              "internalType": "address",
              "name": "contractAddress",
              "type": "address"
            },
            {
              "internalType": "uint256",
              "name": "tokenId",
              "type": "uint256"
            }
          ],
          "internalType": "struct TrickOrTreat.NFT",
          "name": "place",
          "type": "tuple"
        }
      ],
      "name": "ringDoorbell",
      "outputs": [],
      "stateMutability": "nonpayable",
      "type": "function"
    },
    {
      "inputs": [
        {
          "internalType": "bytes4",
          "name": "interfaceId",
          "type": "bytes4"
        }
      ],
      "name": "supportsInterface",
      "outputs": [
        {
          "internalType": "bool",
          "name": "",
          "type": "bool"
        }
      ],
      "stateMutability": "view",
      "type": "function"
    },
    {
      "inputs": [
        {
          "internalType": "uint256",
          "name": "",
          "type": "uint256"
        }
      ],
      "name": "treats",
      "outputs": [
        {
          "internalType": "uint16",
          "name": "",
          "type": "uint16"
        }
      ],
      "stateMutability": "view",
      "type": "function"
    },
    {
      "inputs": [
        {
          "internalType": "uint256",
          "name": "",
          "type": "uint256"
        }
      ],
      "name": "visitorHashes",
      "outputs": [
        {
          "internalType": "address",
          "name": "contractAddress",
          "type": "address"
        },
        {
          "internalType": "uint256",
          "name": "tokenId",
          "type": "uint256"
        }
      ],
      "stateMutability": "view",
      "type": "function"
    }
  ],
  "bytecode": "0x608060405234801561001057600080fd5b506127a6806100206000396000f3fe608060405234801561001057600080fd5b50600436106101415760003560e01c806379e16d0c116100b8578063b1d8a3401161007c578063b1d8a340146103c1578063be4d04ca146103f1578063c17136341461040d578063c600ee2c1461043d578063d547741f14610459578063fed4b4ea1461047557610141565b806379e16d0c146103085780638129fc1c1461033857806391d1485414610342578063957b0fd914610372578063a217fddf146103a357610141565b8063280fd18d1161010a578063280fd18d146102365780632f2ff15d14610254578063311d3bd21461027057806336568abe1461028c5780635c34e7b0146102a85780636578210d146102d857610141565b806210b5851461014657806301ffc9a71461017657806309331359146101a65780630b86abcd146101d6578063248a9ca314610206575b600080fd5b610160600480360381019061015b9190611b19565b610493565b60405161016d91906120c9565b60405180910390f35b610190600480360381019061018b9190611af0565b6104cb565b60405161019d9190611f91565b60405180910390f35b6101c060048036038101906101bb9190611b19565b610545565b6040516101cd9190611f91565b60405180910390f35b6101f060048036038101906101eb9190611b19565b61056f565b6040516101fd91906120e4565b60405180910390f35b610220600480360381019061021b9190611a8b565b6105ac565b60405161022d9190611fac565b60405180910390f35b61023e6105cc565b60405161024b9190611f6f565b60405180910390f35b61026e60048036038101906102699190611ab4565b6105dd565b005b61028a60048036038101906102859190611b42565b610606565b005b6102a660048036038101906102a19190611ab4565b6107ff565b005b6102c260048036038101906102bd9190611b7e565b610882565b6040516102cf91906120ff565b60405180910390f35b6102f260048036038101906102ed9190611b42565b6108a2565b6040516102ff91906120e4565b60405180910390f35b610322600480360381019061031d9190611b7e565b6108ec565b60405161032f91906120c9565b60405180910390f35b61034061090d565b005b61035c60048036038101906103579190611ab4565b6109fb565b6040516103699190611f91565b60405180910390f35b61038c60048036038101906103879190611b7e565b610a66565b60405161039a929190611eca565b60405180910390f35b6103ab610aaa565b6040516103b89190611fac565b60405180910390f35b6103db60048036038101906103d69190611b7e565b610ab1565b6040516103e891906120e4565b60405180910390f35b61040b60048036038101906104069190611b42565b610ac9565b005b61042760048036038101906104229190611b19565b610ddc565b60405161043491906120e4565b60405180910390f35b61045760048036038101906104529190611b19565b610e29565b005b610473600480360381019061046e9190611ab4565b610ecd565b005b61047d610ef6565b60405161048a9190611fac565b60405180910390f35b60008061049f8361056f565b90506099600082815260200190815260200160002060009054906101000a900461ffff16915050919050565b60007f7965db0b000000000000000000000000000000000000000000000000000000007bffffffffffffffffffffffffffffffffffffffffffffffffffffffff1916827bffffffffffffffffffffffffffffffffffffffffffffffffffffffff1916148061053e575061053d82610f1a565b5b9050919050565b6000806105518361056f565b905061056781609a610f8490919063ffffffff16565b915050919050565b60008160000151826020015160405160200161058c929190611eca565b6040516020818303038152906040528051906020012060001c9050919050565b600060656000838152602001908152602001600020600101549050919050565b60606105d8609a610f9e565b905090565b6105e6826105ac565b6105f7816105f2610fbf565b610fc7565b6106018383611064565b505050565b60006106118361056f565b90506101f46099600083815260200190815260200160002060009054906101000a900461ffff1661ffff161061067c576040517f08c379a000000000000000000000000000000000000000000000000000000000815260040161067390612009565b60405180910390fd5b600061068784610ddc565b9050600c6098600083815260200190815260200160002060009054906101000a900460ff1660ff16106106ef576040517f08c379a00000000000000000000000000000000000000000000000000000000081526004016106e690612049565b60405180910390fd5b60006106fb85856108a2565b905061e10060976000838152602001908152602001600020544261071f9190612323565b1161075f576040517f08c379a000000000000000000000000000000000000000000000000000000000815260040161075690612029565b60405180910390fd5b600084600001518560200151620151804261077a9190612264565b60405160200161078c93929190611f38565b6040516020818303038152906040528051906020012060001c905060006008826107b69190612488565b14156107f7576040517f08c379a00000000000000000000000000000000000000000000000000000000081526004016107ee90612089565b60405180910390fd5b505050505050565b610807610fbf565b73ffffffffffffffffffffffffffffffffffffffff168173ffffffffffffffffffffffffffffffffffffffff1614610874576040517f08c379a000000000000000000000000000000000000000000000000000000000815260040161086b906120a9565b60405180910390fd5b61087e8282611145565b5050565b60986020528060005260406000206000915054906101000a900460ff1681565b600082600001518360200151836000015184602001516040516020016108cb9493929190611ef3565b6040516020818303038152906040528051906020012060001c905092915050565b60996020528060005260406000206000915054906101000a900461ffff1681565b600060019054906101000a900460ff1680610933575060008054906101000a900460ff16155b610972576040517f08c379a000000000000000000000000000000000000000000000000000000000815260040161096990612069565b60405180910390fd5b60008060019054906101000a900460ff1615905080156109c2576001600060016101000a81548160ff02191690831515021790555060016000806101000a81548160ff0219169083151502179055505b6109ca611227565b6109d76000801b33611318565b80156109f85760008060016101000a81548160ff0219169083151502179055505b50565b60006065600084815260200190815260200160002060000160008373ffffffffffffffffffffffffffffffffffffffff1673ffffffffffffffffffffffffffffffffffffffff16815260200190815260200160002060009054906101000a900460ff16905092915050565b609c6020528060005260406000206000915090508060000160009054906101000a900473ffffffffffffffffffffffffffffffffffffffff16908060010154905082565b6000801b81565b60976020528060005260406000206000915090505481565b7f86963f192fc176491b7bfa89b708538409f462c751c0ec1af0c0d95c9ddb801d610afb81610af6610fbf565b610fc7565b610b058383610606565b6000610b108461056f565b90506000610b1d85610ddc565b90506000610b2b86866108a2565b905060016098600084815260200190815260200160002060008282829054906101000a900460ff16610b5d919061222d565b92506101000a81548160ff021916908360ff160217905550426097600083815260200190815260200160002081905550600060016005610b9b611326565b610ba59190612488565b610baf91906121d7565b905060006006610bbd611326565b610bc79190612488565b148015610bf9575060006099600086815260200190815260200160002060009054906101000a900461ffff1661ffff16115b15610d18576099600085815260200190815260200160002060009054906101000a900461ffff1661ffff168161ffff1611610c345780610c57565b6099600085815260200190815260200160002060009054906101000a900461ffff165b9050806099600086815260200190815260200160002060009054906101000a900461ffff16610c8691906122ef565b6099600086815260200190815260200160002060006101000a81548161ffff021916908361ffff160217905550610cbc87610e29565b8660200151876000015173ffffffffffffffffffffffffffffffffffffffff167f23b9b2d476d90a64ac2a5a600191d156df7c67f5bbbb4ca2a0896359a1ab0b3083604051610d0b91906120c9565b60405180910390a3610dd3565b806099600086815260200190815260200160002060009054906101000a900461ffff16610d45919061219f565b6099600086815260200190815260200160002060006101000a81548161ffff021916908361ffff160217905550610d7b87610e29565b8660200151876000015173ffffffffffffffffffffffffffffffffffffffff167fcc049c6e74d28eb24241b9d85bef4d22e1fddec17be61d05c8d5ce29afa3e93883604051610dca91906120c9565b60405180910390a35b50505050505050565b6000816000015182602001516201518042610df79190612264565b604051602001610e0993929190611f38565b6040516020818303038152906040528051906020012060001c9050919050565b6000801b610e3e81610e39610fbf565b610fc7565b6000610e498361056f565b9050610e5f81609a61135d90919063ffffffff16565b5082609c600083815260200190815260200160002060008201518160000160006101000a81548173ffffffffffffffffffffffffffffffffffffffff021916908373ffffffffffffffffffffffffffffffffffffffff16021790555060208201518160010155905050505050565b610ed6826105ac565b610ee781610ee2610fbf565b610fc7565b610ef18383611145565b505050565b7f86963f192fc176491b7bfa89b708538409f462c751c0ec1af0c0d95c9ddb801d81565b60007f01ffc9a7000000000000000000000000000000000000000000000000000000007bffffffffffffffffffffffffffffffffffffffffffffffffffffffff1916827bffffffffffffffffffffffffffffffffffffffffffffffffffffffff1916149050919050565b6000610f96836000018360001b611377565b905092915050565b60606000610fae8360000161139a565b905060608190508092505050919050565b600033905090565b610fd182826109fb565b61106057610ff68173ffffffffffffffffffffffffffffffffffffffff1660146113f6565b6110048360001c60206113f6565b604051602001611015929190611e42565b6040516020818303038152906040526040517f08c379a00000000000000000000000000000000000000000000000000000000081526004016110579190611fc7565b60405180910390fd5b5050565b61106e82826109fb565b6111415760016065600084815260200190815260200160002060000160008373ffffffffffffffffffffffffffffffffffffffff1673ffffffffffffffffffffffffffffffffffffffff16815260200190815260200160002060006101000a81548160ff0219169083151502179055506110e6610fbf565b73ffffffffffffffffffffffffffffffffffffffff168173ffffffffffffffffffffffffffffffffffffffff16837f2f8788117e7eff1d82e926ec794901d17c78024a50270940304540a733656f0d60405160405180910390a45b5050565b61114f82826109fb565b156112235760006065600084815260200190815260200160002060000160008373ffffffffffffffffffffffffffffffffffffffff1673ffffffffffffffffffffffffffffffffffffffff16815260200190815260200160002060006101000a81548160ff0219169083151502179055506111c8610fbf565b73ffffffffffffffffffffffffffffffffffffffff168173ffffffffffffffffffffffffffffffffffffffff16837ff6391f5c32d9c69d2a47ea670b442974b53935d1edc7fd64eb21e047a839171b60405160405180910390a45b5050565b600060019054906101000a900460ff168061124d575060008054906101000a900460ff16155b61128c576040517f08c379a000000000000000000000000000000000000000000000000000000000815260040161128390612069565b60405180910390fd5b60008060019054906101000a900460ff1615905080156112dc576001600060016101000a81548160ff02191690831515021790555060016000806101000a81548160ff0219169083151502179055505b6112e46116f0565b6112ec6117c9565b6112f46118a2565b80156113155760008060016101000a81548160ff0219169083151502179055505b50565b6113228282611064565b5050565b60004342445a60405160200161133f9493929190611e7c565b6040516020818303038152906040528051906020012060001c905090565b600061136f836000018360001b61197b565b905092915050565b600080836001016000848152602001908152602001600020541415905092915050565b6060816000018054806020026020016040519081016040528092919081815260200182805480156113ea57602002820191906000526020600020905b8154815260200190600101908083116113d6575b50505050509050919050565b6060600060028360026114099190612295565b61141391906121d7565b67ffffffffffffffff811115611452577f4e487b7100000000000000000000000000000000000000000000000000000000600052604160045260246000fd5b6040519080825280601f01601f1916602001820160405280156114845781602001600182028036833780820191505090505b5090507f3000000000000000000000000000000000000000000000000000000000000000816000815181106114e2577f4e487b7100000000000000000000000000000000000000000000000000000000600052603260045260246000fd5b60200101907effffffffffffffffffffffffffffffffffffffffffffffffffffffffffffff1916908160001a9053507f78000000000000000000000000000000000000000000000000000000000000008160018151811061156c577f4e487b7100000000000000000000000000000000000000000000000000000000600052603260045260246000fd5b60200101907effffffffffffffffffffffffffffffffffffffffffffffffffffffffffffff1916908160001a905350600060018460026115ac9190612295565b6115b691906121d7565b90505b60018111156116a2577f3031323334353637383961626364656600000000000000000000000000000000600f86166010811061161e577f4e487b7100000000000000000000000000000000000000000000000000000000600052603260045260246000fd5b1a60f81b82828151811061165b577f4e487b7100000000000000000000000000000000000000000000000000000000600052603260045260246000fd5b60200101907effffffffffffffffffffffffffffffffffffffffffffffffffffffffffffff1916908160001a905350600485901c94508061169b90612423565b90506115b9565b50600084146116e6576040517f08c379a00000000000000000000000000000000000000000000000000000000081526004016116dd90611fe9565b60405180910390fd5b8091505092915050565b600060019054906101000a900460ff1680611716575060008054906101000a900460ff16155b611755576040517f08c379a000000000000000000000000000000000000000000000000000000000815260040161174c90612069565b60405180910390fd5b60008060019054906101000a900460ff1615905080156117a5576001600060016101000a81548160ff02191690831515021790555060016000806101000a81548160ff0219169083151502179055505b80156117c65760008060016101000a81548160ff0219169083151502179055505b50565b600060019054906101000a900460ff16806117ef575060008054906101000a900460ff16155b61182e576040517f08c379a000000000000000000000000000000000000000000000000000000000815260040161182590612069565b60405180910390fd5b60008060019054906101000a900460ff16159050801561187e576001600060016101000a81548160ff02191690831515021790555060016000806101000a81548160ff0219169083151502179055505b801561189f5760008060016101000a81548160ff0219169083151502179055505b50565b600060019054906101000a900460ff16806118c8575060008054906101000a900460ff16155b611907576040517f08c379a00000000000000000000000000000000000000000000000000000000081526004016118fe90612069565b60405180910390fd5b60008060019054906101000a900460ff161590508015611957576001600060016101000a81548160ff02191690831515021790555060016000806101000a81548160ff0219169083151502179055505b80156119785760008060016101000a81548160ff0219169083151502179055505b50565b60006119878383611377565b6119e05782600001829080600181540180825580915050600190039060005260206000200160009091909190915055826000018054905083600101600084815260200190815260200160002081905550600190506119e5565b600090505b92915050565b6000813590506119fa81612714565b92915050565b600081359050611a0f8161272b565b92915050565b600081359050611a2481612742565b92915050565b600060408284031215611a3c57600080fd5b611a46604061211a565b90506000611a56848285016119eb565b6000830152506020611a6a84828501611a76565b60208301525092915050565b600081359050611a8581612759565b92915050565b600060208284031215611a9d57600080fd5b6000611aab84828501611a00565b91505092915050565b60008060408385031215611ac757600080fd5b6000611ad585828601611a00565b9250506020611ae6858286016119eb565b9150509250929050565b600060208284031215611b0257600080fd5b6000611b1084828501611a15565b91505092915050565b600060408284031215611b2b57600080fd5b6000611b3984828501611a2a565b91505092915050565b60008060808385031215611b5557600080fd5b6000611b6385828601611a2a565b9250506040611b7485828601611a2a565b9150509250929050565b600060208284031215611b9057600080fd5b6000611b9e84828501611a76565b91505092915050565b6000611bb38383611dfe565b60208301905092915050565b611bc881612357565b82525050565b6000611bd98261214f565b611be38185612172565b9350611bee8361213f565b8060005b83811015611c1f578151611c068882611ba7565b9750611c1183612165565b925050600181019050611bf2565b5085935050505092915050565b611c3581612369565b82525050565b611c4481612375565b82525050565b6000611c558261215a565b611c5f8185612183565b9350611c6f8185602086016123f0565b611c7881612546565b840191505092915050565b6000611c8e8261215a565b611c988185612194565b9350611ca88185602086016123f0565b80840191505092915050565b6000611cc1602083612183565b9150611ccc82612557565b602082019050919050565b6000611ce4601183612183565b9150611cef82612580565b602082019050919050565b6000611d07601e83612183565b9150611d12826125a9565b602082019050919050565b6000611d2a601283612183565b9150611d35826125d2565b602082019050919050565b6000611d4d602e83612183565b9150611d58826125fb565b604082019050919050565b6000611d70601283612183565b9150611d7b8261264a565b602082019050919050565b6000611d93601783612194565b9150611d9e82612673565b601782019050919050565b6000611db6601183612194565b9150611dc18261269c565b601182019050919050565b6000611dd9602f83612183565b9150611de4826126c5565b604082019050919050565b611df8816123ab565b82525050565b611e07816123d9565b82525050565b611e16816123d9565b82525050565b611e2d611e28826123d9565b61247e565b82525050565b611e3c816123e3565b82525050565b6000611e4d82611d86565b9150611e598285611c83565b9150611e6482611da9565b9150611e708284611c83565b91508190509392505050565b6000611e888287611e1c565b602082019150611e988286611e1c565b602082019150611ea88285611e1c565b602082019150611eb88284611e1c565b60208201915081905095945050505050565b6000604082019050611edf6000830185611bbf565b611eec6020830184611e0d565b9392505050565b6000608082019050611f086000830187611bbf565b611f156020830186611e0d565b611f226040830185611bbf565b611f2f6060830184611e0d565b95945050505050565b6000606082019050611f4d6000830186611bbf565b611f5a6020830185611e0d565b611f676040830184611e0d565b949350505050565b60006020820190508181036000830152611f898184611bce565b905092915050565b6000602082019050611fa66000830184611c2c565b92915050565b6000602082019050611fc16000830184611c3b565b92915050565b60006020820190508181036000830152611fe18184611c4a565b905092915050565b6000602082019050818103600083015261200281611cb4565b9050919050565b6000602082019050818103600083015261202281611cd7565b9050919050565b6000602082019050818103600083015261204281611cfa565b9050919050565b6000602082019050818103600083015261206281611d1d565b9050919050565b6000602082019050818103600083015261208281611d40565b9050919050565b600060208201905081810360008301526120a281611d63565b9050919050565b600060208201905081810360008301526120c281611dcc565b9050919050565b60006020820190506120de6000830184611def565b92915050565b60006020820190506120f96000830184611e0d565b92915050565b60006020820190506121146000830184611e33565b92915050565b6000612124612135565b9050612130828261244d565b919050565b6000604051905090565b6000819050602082019050919050565b600081519050919050565b600081519050919050565b6000602082019050919050565b600082825260208201905092915050565b600082825260208201905092915050565b600081905092915050565b60006121aa826123ab565b91506121b5836123ab565b92508261ffff038211156121cc576121cb6124b9565b5b828201905092915050565b60006121e2826123d9565b91506121ed836123d9565b9250827fffffffffffffffffffffffffffffffffffffffffffffffffffffffffffffffff03821115612222576122216124b9565b5b828201905092915050565b6000612238826123e3565b9150612243836123e3565b92508260ff03821115612259576122586124b9565b5b828201905092915050565b600061226f826123d9565b915061227a836123d9565b92508261228a576122896124e8565b5b828204905092915050565b60006122a0826123d9565b91506122ab836123d9565b9250817fffffffffffffffffffffffffffffffffffffffffffffffffffffffffffffffff04831182151516156122e4576122e36124b9565b5b828202905092915050565b60006122fa826123ab565b9150612305836123ab565b925082821015612318576123176124b9565b5b828203905092915050565b600061232e826123d9565b9150612339836123d9565b92508282101561234c5761234b6124b9565b5b828203905092915050565b6000612362826123b9565b9050919050565b60008115159050919050565b6000819050919050565b60007fffffffff0000000000000000000000000000000000000000000000000000000082169050919050565b600061ffff82169050919050565b600073ffffffffffffffffffffffffffffffffffffffff82169050919050565b6000819050919050565b600060ff82169050919050565b60005b8381101561240e5780820151818401526020810190506123f3565b8381111561241d576000848401525b50505050565b600061242e826123d9565b91506000821415612442576124416124b9565b5b600182039050919050565b61245682612546565b810181811067ffffffffffffffff8211171561247557612474612517565b5b80604052505050565b6000819050919050565b6000612493826123d9565b915061249e836123d9565b9250826124ae576124ad6124e8565b5b828206905092915050565b7f4e487b7100000000000000000000000000000000000000000000000000000000600052601160045260246000fd5b7f4e487b7100000000000000000000000000000000000000000000000000000000600052601260045260246000fd5b7f4e487b7100000000000000000000000000000000000000000000000000000000600052604160045260246000fd5b6000601f19601f8301169050919050565b7f537472696e67733a20686578206c656e67746820696e73756666696369656e74600082015250565b7f50554d504b494e5f5f4241475f46554c4c000000000000000000000000000000600082015250565b7f50554d504b494e5f5f414c52454144595f564953495445445f544f4441590000600082015250565b7f50554d504b494e5f5f544f4f5f54495245440000000000000000000000000000600082015250565b7f496e697469616c697a61626c653a20636f6e747261637420697320616c72656160008201527f647920696e697469616c697a6564000000000000000000000000000000000000602082015250565b7f50554d504b494e5f5f4e4f5f414e535745520000000000000000000000000000600082015250565b7f416363657373436f6e74726f6c3a206163636f756e7420000000000000000000600082015250565b7f206973206d697373696e6720726f6c6520000000000000000000000000000000600082015250565b7f416363657373436f6e74726f6c3a2063616e206f6e6c792072656e6f756e636560008201527f20726f6c657320666f722073656c660000000000000000000000000000000000602082015250565b61271d81612357565b811461272857600080fd5b50565b61273481612375565b811461273f57600080fd5b50565b61274b8161237f565b811461275657600080fd5b50565b612762816123d9565b811461276d57600080fd5b5056fea264697066735822122054b5b16adaf16a48ea535aca775c7a256e83c8df48056f1c3601e3159ab7341164736f6c63430008040033",
  "linkReferences": {},
  "deployedLinkReferences": {}
}