{
  "_format": "hh-sol-artifact-1",
  "contractName": "TrickOrTreat",
  "sourceName": "contracts/TrickOrTreat.sol",
  "abi": [
    {
      "anonymous": false,
      "inputs": [
        {
          "indexed": true,
          "internalType": "address",
          "name": "previousOwner",
          "type": "address"
        },
        {
          "indexed": true,
          "internalType": "address",
          "name": "newOwner",
          "type": "address"
        }
      ],
      "name": "OwnershipTransferred",
      "type": "event"
    },
    {
      "anonymous": false,
      "inputs": [
        {
          "indexed": true,
          "internalType": "address",
          "name": "visitorContractAddress",
          "type": "address"
        },
        {
          "indexed": true,
          "internalType": "uint256",
          "name": "visitorTokenId",
          "type": "uint256"
        },
        {
          "indexed": false,
          "internalType": "uint16",
          "name": "amount",
          "type": "uint16"
        }
      ],
      "name": "Treated",
      "type": "event"
    },
    {
      "anonymous": false,
      "inputs": [
        {
          "indexed": true,
          "internalType": "address",
          "name": "visitorContractAddress",
          "type": "address"
        },
        {
          "indexed": true,
          "internalType": "uint256",
          "name": "visitorTokenId",
          "type": "uint256"
        },
        {
          "indexed": false,
          "internalType": "uint16",
          "name": "amount",
          "type": "uint16"
        }
      ],
      "name": "Tricked",
      "type": "event"
    },
    {
      "inputs": [
        {
          "components": [
            {
              "internalType": "address",
              "name": "contractAddress",
              "type": "address"
            },
            {
              "internalType": "uint256",
              "name": "tokenId",
              "type": "uint256"
            }
          ],
          "internalType": "struct TrickOrTreat.NFT",
          "name": "visitor",
          "type": "tuple"
        }
      ],
      "name": "bagContents",
      "outputs": [
        {
          "internalType": "uint16",
          "name": "",
          "type": "uint16"
        }
      ],
      "stateMutability": "view",
      "type": "function"
    },
    {
      "inputs": [
        {
          "internalType": "uint256",
          "name": "",
          "type": "uint256"
        }
      ],
      "name": "dailyVisits",
      "outputs": [
        {
          "internalType": "uint8",
          "name": "",
          "type": "uint8"
        }
      ],
      "stateMutability": "view",
      "type": "function"
    },
    {
      "inputs": [],
      "name": "initialize",
      "outputs": [],
      "stateMutability": "nonpayable",
      "type": "function"
    },
    {
      "inputs": [],
      "name": "owner",
      "outputs": [
        {
          "internalType": "address",
          "name": "",
          "type": "address"
        }
      ],
      "stateMutability": "view",
      "type": "function"
    },
    {
      "inputs": [
        {
          "internalType": "uint256",
          "name": "",
          "type": "uint256"
        }
      ],
      "name": "placeVisits",
      "outputs": [
        {
          "internalType": "uint256",
          "name": "",
          "type": "uint256"
        }
      ],
      "stateMutability": "view",
      "type": "function"
    },
    {
      "inputs": [],
      "name": "renounceOwnership",
      "outputs": [],
      "stateMutability": "nonpayable",
      "type": "function"
    },
    {
      "inputs": [
        {
          "components": [
            {
              "internalType": "address",
              "name": "contractAddress",
              "type": "address"
            },
            {
              "internalType": "uint256",
              "name": "tokenId",
              "type": "uint256"
            }
          ],
          "internalType": "struct TrickOrTreat.NFT",
          "name": "visitor",
          "type": "tuple"
        },
        {
          "components": [
            {
              "internalType": "address",
              "name": "contractAddress",
              "type": "address"
            },
            {
              "internalType": "uint256",
              "name": "tokenId",
              "type": "uint256"
            }
          ],
          "internalType": "struct TrickOrTreat.NFT",
          "name": "place",
          "type": "tuple"
        }
      ],
      "name": "ringDoorbell",
      "outputs": [],
      "stateMutability": "nonpayable",
      "type": "function"
    },
    {
      "inputs": [
        {
          "internalType": "address",
          "name": "newOwner",
          "type": "address"
        }
      ],
      "name": "transferOwnership",
      "outputs": [],
      "stateMutability": "nonpayable",
      "type": "function"
    },
    {
      "inputs": [
        {
          "internalType": "uint256",
          "name": "",
          "type": "uint256"
        }
      ],
      "name": "treats",
      "outputs": [
        {
          "internalType": "uint16",
          "name": "",
          "type": "uint16"
        }
      ],
      "stateMutability": "view",
      "type": "function"
    }
  ],
  "bytecode": "0x608060405234801561001057600080fd5b50611759806100206000396000f3fe608060405234801561001057600080fd5b50600436106100925760003560e01c80638129fc1c116100665780638129fc1c146101315780638da5cb5b1461013b578063b1d8a34014610159578063be4d04ca14610189578063f2fde38b146101a557610092565b806210b585146100975780635c34e7b0146100c7578063715018a6146100f757806379e16d0c14610101575b600080fd5b6100b160048036038101906100ac9190610e80565b6101c1565b6040516100be9190611244565b60405180910390f35b6100e160048036038101906100dc9190610ee5565b6101f9565b6040516100ee919061127a565b60405180910390f35b6100ff610219565b005b61011b60048036038101906101169190610ee5565b6102a1565b6040516101289190611244565b60405180910390f35b6101396102c2565b005b6101436103a3565b60405161015091906110a4565b60405180910390f35b610173600480360381019061016e9190610ee5565b6103cd565b604051610180919061125f565b60405180910390f35b6101a3600480360381019061019e9190610ea9565b6103e5565b005b6101bf60048036038101906101ba9190610e57565b6108fc565b005b6000806101cd836109f4565b90506067600082815260200190815260200160002060009054906101000a900461ffff16915050919050565b60666020528060005260406000206000915054906101000a900460ff1681565b610221610a31565b73ffffffffffffffffffffffffffffffffffffffff1661023f6103a3565b73ffffffffffffffffffffffffffffffffffffffff1614610295576040517f08c379a000000000000000000000000000000000000000000000000000000000815260040161028c90611204565b60405180910390fd5b61029f6000610a39565b565b60676020528060005260406000206000915054906101000a900461ffff1681565b600060019054906101000a900460ff16806102e8575060008054906101000a900460ff16155b610327576040517f08c379a000000000000000000000000000000000000000000000000000000000815260040161031e906111e4565b60405180910390fd5b60008060019054906101000a900460ff161590508015610377576001600060016101000a81548160ff02191690831515021790555060016000806101000a81548160ff0219169083151502179055505b61037f610aff565b80156103a05760008060016101000a81548160ff0219169083151502179055505b50565b6000603360009054906101000a900473ffffffffffffffffffffffffffffffffffffffff16905090565b60656020528060005260406000206000915090505481565b6103ed610a31565b73ffffffffffffffffffffffffffffffffffffffff1661040b6103a3565b73ffffffffffffffffffffffffffffffffffffffff1614610461576040517f08c379a000000000000000000000000000000000000000000000000000000000815260040161045890611204565b60405180910390fd5b600061046c836109f4565b90506101f46067600083815260200190815260200160002060009054906101000a900461ffff1661ffff16106104d7576040517f08c379a00000000000000000000000000000000000000000000000000000000081526004016104ce90611164565b60405180910390fd5b60008360000151846020015162015180426104f29190611390565b6040516020016105049392919061112d565b6040516020818303038152906040528051906020012060001c905060146066600083815260200190815260200160002060009054906101000a900460ff1660ff1610610585576040517f08c379a000000000000000000000000000000000000000000000000000000000815260040161057c906111c4565b60405180910390fd5b600084600001518560200151856000015186602001516040516020016105ae94939291906110e8565b6040516020818303038152906040528051906020012060001c905061e1006065600083815260200190815260200160002054426105eb91906113f5565b1161062b576040517f08c379a0000000000000000000000000000000000000000000000000000000008152600401610622906111a4565b60405180910390fd5b60016066600084815260200190815260200160002060008282829054906101000a900460ff1661065b9190611359565b92506101000a81548160ff021916908360ff16021790555042606560008381526020019081526020016000208190555060008460000151856020015162015180426106a69190611390565b6040516020016106b89392919061112d565b6040516020818303038152906040528051906020012060001c90506000600a826106e291906114bb565b1415610723576040517f08c379a000000000000000000000000000000000000000000000000000000000815260040161071a90611224565b60405180910390fd5b600060016005610731610be8565b61073b91906114bb565b6107459190611303565b90506000600a610753610be8565b61075d91906114bb565b1415610851578061ffff166067600087815260200190815260200160002060009054906101000a900461ffff1661ffff161161079a5760006107c8565b806067600087815260200190815260200160002060009054906101000a900461ffff166107c791906113c1565b5b6067600087815260200190815260200160002060006101000a81548161ffff021916908361ffff1602179055508660200151876000015173ffffffffffffffffffffffffffffffffffffffff167f23b9b2d476d90a64ac2a5a600191d156df7c67f5bbbb4ca2a0896359a1ab0b30836040516108449190611244565b60405180910390a36108f3565b806067600087815260200190815260200160002060008282829054906101000a900461ffff1661088191906112cb565b92506101000a81548161ffff021916908361ffff1602179055508660200151876000015173ffffffffffffffffffffffffffffffffffffffff167fcc049c6e74d28eb24241b9d85bef4d22e1fddec17be61d05c8d5ce29afa3e938836040516108ea9190611244565b60405180910390a35b50505050505050565b610904610a31565b73ffffffffffffffffffffffffffffffffffffffff166109226103a3565b73ffffffffffffffffffffffffffffffffffffffff1614610978576040517f08c379a000000000000000000000000000000000000000000000000000000000815260040161096f90611204565b60405180910390fd5b600073ffffffffffffffffffffffffffffffffffffffff168173ffffffffffffffffffffffffffffffffffffffff1614156109e8576040517f08c379a00000000000000000000000000000000000000000000000000000000081526004016109df90611184565b60405180910390fd5b6109f181610a39565b50565b600081600001518260200151604051602001610a119291906110bf565b6040516020818303038152906040528051906020012060001c9050919050565b600033905090565b6000603360009054906101000a900473ffffffffffffffffffffffffffffffffffffffff16905081603360006101000a81548173ffffffffffffffffffffffffffffffffffffffff021916908373ffffffffffffffffffffffffffffffffffffffff1602179055508173ffffffffffffffffffffffffffffffffffffffff168173ffffffffffffffffffffffffffffffffffffffff167f8be0079c531659141344cd1fd0a4f28419497f9722a3daafe3b4186f6b6457e060405160405180910390a35050565b600060019054906101000a900460ff1680610b25575060008054906101000a900460ff16155b610b64576040517f08c379a0000000000000000000000000000000000000000000000000000000008152600401610b5b906111e4565b60405180910390fd5b60008060019054906101000a900460ff161590508015610bb4576001600060016101000a81548160ff02191690831515021790555060016000806101000a81548160ff0219169083151502179055505b610bbc610c1f565b610bc4610cf8565b8015610be55760008060016101000a81548160ff0219169083151502179055505b50565b60004342445a604051602001610c019493929190611056565b6040516020818303038152906040528051906020012060001c905090565b600060019054906101000a900460ff1680610c45575060008054906101000a900460ff16155b610c84576040517f08c379a0000000000000000000000000000000000000000000000000000000008152600401610c7b906111e4565b60405180910390fd5b60008060019054906101000a900460ff161590508015610cd4576001600060016101000a81548160ff02191690831515021790555060016000806101000a81548160ff0219169083151502179055505b8015610cf55760008060016101000a81548160ff0219169083151502179055505b50565b600060019054906101000a900460ff1680610d1e575060008054906101000a900460ff16155b610d5d576040517f08c379a0000000000000000000000000000000000000000000000000000000008152600401610d54906111e4565b60405180910390fd5b60008060019054906101000a900460ff161590508015610dad576001600060016101000a81548160ff02191690831515021790555060016000806101000a81548160ff0219169083151502179055505b610dbd610db8610a31565b610a39565b8015610dde5760008060016101000a81548160ff0219169083151502179055505b50565b600081359050610df0816116f5565b92915050565b600060408284031215610e0857600080fd5b610e126040611295565b90506000610e2284828501610de1565b6000830152506020610e3684828501610e42565b60208301525092915050565b600081359050610e518161170c565b92915050565b600060208284031215610e6957600080fd5b6000610e7784828501610de1565b91505092915050565b600060408284031215610e9257600080fd5b6000610ea084828501610df6565b91505092915050565b60008060808385031215610ebc57600080fd5b6000610eca85828601610df6565b9250506040610edb85828601610df6565b9150509250929050565b600060208284031215610ef757600080fd5b6000610f0584828501610e42565b91505092915050565b610f1781611429565b82525050565b6000610f2a6011836112ba565b9150610f358261158a565b602082019050919050565b6000610f4d6026836112ba565b9150610f58826115b3565b604082019050919050565b6000610f70601e836112ba565b9150610f7b82611602565b602082019050919050565b6000610f936012836112ba565b9150610f9e8261162b565b602082019050919050565b6000610fb6602e836112ba565b9150610fc182611654565b604082019050919050565b6000610fd96020836112ba565b9150610fe4826116a3565b602082019050919050565b6000610ffc6012836112ba565b9150611007826116cc565b602082019050919050565b61101b8161143b565b82525050565b61102a81611469565b82525050565b61104161103c82611469565b6114b1565b82525050565b61105081611473565b82525050565b60006110628287611030565b6020820191506110728286611030565b6020820191506110828285611030565b6020820191506110928284611030565b60208201915081905095945050505050565b60006020820190506110b96000830184610f0e565b92915050565b60006040820190506110d46000830185610f0e565b6110e16020830184611021565b9392505050565b60006080820190506110fd6000830187610f0e565b61110a6020830186611021565b6111176040830185610f0e565b6111246060830184611021565b95945050505050565b60006060820190506111426000830186610f0e565b61114f6020830185611021565b61115c6040830184611021565b949350505050565b6000602082019050818103600083015261117d81610f1d565b9050919050565b6000602082019050818103600083015261119d81610f40565b9050919050565b600060208201905081810360008301526111bd81610f63565b9050919050565b600060208201905081810360008301526111dd81610f86565b9050919050565b600060208201905081810360008301526111fd81610fa9565b9050919050565b6000602082019050818103600083015261121d81610fcc565b9050919050565b6000602082019050818103600083015261123d81610fef565b9050919050565b60006020820190506112596000830184611012565b92915050565b60006020820190506112746000830184611021565b92915050565b600060208201905061128f6000830184611047565b92915050565b600061129f6112b0565b90506112ab8282611480565b919050565b6000604051905090565b600082825260208201905092915050565b60006112d68261143b565b91506112e18361143b565b92508261ffff038211156112f8576112f76114ec565b5b828201905092915050565b600061130e82611469565b915061131983611469565b9250827fffffffffffffffffffffffffffffffffffffffffffffffffffffffffffffffff0382111561134e5761134d6114ec565b5b828201905092915050565b600061136482611473565b915061136f83611473565b92508260ff03821115611385576113846114ec565b5b828201905092915050565b600061139b82611469565b91506113a683611469565b9250826113b6576113b561151b565b5b828204905092915050565b60006113cc8261143b565b91506113d78361143b565b9250828210156113ea576113e96114ec565b5b828203905092915050565b600061140082611469565b915061140b83611469565b92508282101561141e5761141d6114ec565b5b828203905092915050565b600061143482611449565b9050919050565b600061ffff82169050919050565b600073ffffffffffffffffffffffffffffffffffffffff82169050919050565b6000819050919050565b600060ff82169050919050565b61148982611579565b810181811067ffffffffffffffff821117156114a8576114a761154a565b5b80604052505050565b6000819050919050565b60006114c682611469565b91506114d183611469565b9250826114e1576114e061151b565b5b828206905092915050565b7f4e487b7100000000000000000000000000000000000000000000000000000000600052601160045260246000fd5b7f4e487b7100000000000000000000000000000000000000000000000000000000600052601260045260246000fd5b7f4e487b7100000000000000000000000000000000000000000000000000000000600052604160045260246000fd5b6000601f19601f8301169050919050565b7f50554d504b494e5f5f4241475f46554c4c000000000000000000000000000000600082015250565b7f4f776e61626c653a206e6577206f776e657220697320746865207a65726f206160008201527f6464726573730000000000000000000000000000000000000000000000000000602082015250565b7f50554d504b494e5f5f414c52454144595f564953495445445f544f4441590000600082015250565b7f50554d504b494e5f5f544f4f5f54495245440000000000000000000000000000600082015250565b7f496e697469616c697a61626c653a20636f6e747261637420697320616c72656160008201527f647920696e697469616c697a6564000000000000000000000000000000000000602082015250565b7f4f776e61626c653a2063616c6c6572206973206e6f7420746865206f776e6572600082015250565b7f50554d504b494e5f5f4e4f5f414e535745520000000000000000000000000000600082015250565b6116fe81611429565b811461170957600080fd5b50565b61171581611469565b811461172057600080fd5b5056fea2646970667358221220075fc6972b362dc254f774a3ca94ad90e0fb603dd9262118bed24f494566bcd764736f6c63430008040033",
  "linkReferences": {},
  "deployedLinkReferences": {}
}